:0200000460009A
:100000004643464200000156000000000103030081
:1000100000000000000000000000000000000000E0
:1000200000000000000000000000000000000000D0
:1000300000000000000000000000000000000000C0
:1000400000000000010408000000000000000000A3
:100050000000200000000000000000000000000080
:100060000000000000000000000000000000000090
:100070000000000000000000000000000000000080
:10008000EB04180A063204260000000000000000FD
:10009000050404240000000000000000000000002F
:1000A0000000000000000000000000000000000050
:1000B0000604000000000000000000000000000036
:1000C0000000000000000000000000000000000030
:1000D00020041808000000000000000000000000DC
:1000E0000000000000000000000000000000000010
:1000F0000000000000000000000000000000000000
:10010000D8041808000000000000000000000000F3
:100110000204180804200000000000000000000095
:1001200000000000000000000000000000000000CF
:10013000600400000000000000000000000000005B
:1001400000000000000000000000000000000000AF
:10015000000000000000000000000000000000009F
:10016000000000000000000000000000000000008F
:10017000000000000000000000000000000000007F
:10018000000000000000000000000000000000006F
:10019000000000000000000000000000000000005F
:1001A000000000000000000000000000000000004F
:1001B000000000000000000000000000000000003F
:1001C000000100000010000001000000000000001D
:1001D000000001000000000000000000000000001E
:1001E000000000000000000000000000000000000F
:1001F00000000000000000000000000000000000FF
:10020000FFFFFFFFFFFFFFFFFFFFFFFFFFFFFFFFFE
:10021000FFFFFFFFFFFFFFFFFFFFFFFFFFFFFFFFEE
:10100000D100204327140060000000000000000011
:101010002010006000100060005801600000000017
:10102000000000600064010000000000FFFFFFFFFF
:10103000FFFFFFFFFFFFFFFFFFFFFFFFFFFFFFFFC0
:10104000FFFFFFFFFFFFFFFFFFFFFFFFFFFFFFFFB0
:10105000FFFFFFFFFFFFFFFFFFFFFFFFFFFFFFFFA0
:10106000FFFFFFFFFFFFFFFFFFFFFFFFFFFFFFFF90
:10140000884207D0904205D251F8043B40F8043B93
:101410008242F9D87047884204D2002340F8043B46
:101420008142FBD870472DE9F843634A634B5A6405
:10143000634A1A644FF42A029A63624B9D46BFF3D3
:101440004F8FBFF36F8F00F03BFA5F4B08225F496D
:101450005F48C3F854215F4AFFF7D2FF5E4A5F49F5
:101460005F48FFF7CDFF5F495F48FFF7D4FF4FF4B8
:1014700070025E4B5E491A6000235E4A42F82310F8
:1014800001335C4DB02BF9D15B4B80215B4A03F8F3
:10149000011B9342FBD14C4C4FF08037584A594BBB
:1014A000DFF89891DFF898811D60C4F80471C4F8E2
:1014B0000091C4F8F470C4F8F0801368524E43F4FD
:1014C000E02313604FF0FF32F36923F07F0343F012
:1014D0004003F361736A23F07F0343F040037362B8
:1014E000364B9A66DA661A675A6700F0ECF9474B92
:1014F0006322AB63464BEB630025464B1A60032225
:101500005D6043F8042C444AC3F80C2D434A136829
:1015100043F080731360424A136843F00103136081
:10152000404B1A68404B1A6000F03CFAC4F8047152
:101530003E48C4F80091C4F8F470C4F8F08000F09C
:1015400027FBF36E43F44053F366394B1D60C3F839
:101550000851C3F81851C3F82851C3F8385103F59E
:10156000A0239A6BD20708D4324A5A6542F6156214
:101570001A659A6B42F001029A639A6842F001126E
:101580009A6000F0CBFA00F013FB00F039FA00F09B
:1015900098F9294A1368284C132BFBD900F0F4F86A
:1015A0002368B3F5967FFBD300F08CF900F0ECFADA
:1015B00000F0F2FA30BFFDE7BFAAAAAA00C00A40B5
:1015C000070020000080062000800D409C1D006068
:1015D00000000000B8140100C02200205832016051
:1015E00000000020E0760320C022002088ED00E00B
:1015F000259A00000020002000E400E0A0E400E0C4
:1016000024ED00E008ED00E000C00F40899F0000DD
:101610008D9F000014E000E000002020FCED00E0C1
:10162000001000E0041000E010730320007B9A1704
:10163000004008400000C056147303201B101820FF
:101640000C0D111330B4234C13B9236F9B043ED4FB
:1016500000F03F0343F48913236721F06043C4F88B
:10166000803022F06043C4F89030236F23F480531D
:101670002367184B1D6F174C002DFBDA07EE901AED
:10168000D4F870311449B8EEE76A07EE902A23F4D3
:101690000003F8EE676A07EE900A23F400430F4850
:1016A000F8EEE77A86EE267AC4F87031236F23F4D9
:1016B0008033236730BC77EE277AB3EE087A67EE83
:1016C000877AB7EEE77A53EC172B00F055BA30BCA7
:1016D000704700BF00800D40460E00200417002018
:1016E000264A416938B5936B044623F47C0343F4DE
:1016F000802393630A684B68156821492B43136064
:10170000022203691A6100F057FA6369227E4FF6DC
:1017100061001C4903EB0212127A01EB021292687B
:101720001060227E03EB0212107AD26801EB0010E7
:1017300040680260227E03EB0212106908B1526910
:101740000260627E4FF6610003EB021292F82820DD
:1017500001EB021292681060627E03EB021292F8B3
:101760002800D26A01EB001149680A60627E03EB2F
:1017700002131A6B0AB15B6B136038BD00C00F40D7
:10178000A08601008C08002038B540F661722D4B10
:10179000C3F8202100F0F4F92B4A2C49D2F880300C
:1017A00043F00303C2F8803040F20442284BC3F8F0
:1017B0006021284A1068014019B9D3F8A811890797
:1017C00018D04FF000415163D3F8402142F002029B
:1017D000C3F840211E4AD2F840319B07FBD44FF496
:1017E00000321D4B19201A604FF00042194B9A63CA
:1017F00000F0D6F9174B00214FF08042174D144CE2
:101800009A63284619600A234FF42072C4F8A8315D
:1018100000F0CAF94FF48103114A2B604FF48003A2
:101820002B6440F24313C4F85851C4F848310D4BAF
:10183000C3F804220C4B4FF400321A600123C4F8A1
:10184000403138BD00800D4000C00F40001C1E001C
:1018500000002E4000900D408CE200E000000020CF
:1018600041940000002000200CE100E008B50E4B80
:101870001B6E9B0701D4FBBE16E072B600220B4B19
:10188000C3F84021A3F50D13094A1A64A3F1FF53CD
:10189000A3F52B239D46BFF34F8F064B06480360ED
:1018A000064B1B689B68984700441F4000002E4071
:1018B00003002000000012EB008020201C0020000C
:1018C00070477047704710B5214A0020214C102303
:1018D000214920601360214B1960112111602049BA
:1018E0001960122111601F4919601F4911601F49B9
:1018F00019601F4911601F4919601F4941F0150106
:1019000011601E49196001F181510D3111601C49AE
:1019100019601C4911601C4919601C4911601C495F
:1019200019601C4911601C4A1A6001232360BFF32F
:101930004F8FBFF36F8F194B1860BFF34F8FBFF3FB
:101940006F8F174A136843F44033136010BD00BF14
:101950009CED00E094ED00E03F000010A0ED00E001
:1019600025000803090010001300200021000207D1
:101970001400002025000813E07603200900001061
:1019800027000B13170000403300101318000060ED
:101990002F000B07190000702F000B1350EF00E011
:1019A00014ED00E0F0B5154B40204FF480314FF4BA
:1019B00080544FF400554FF4404643F242071A69F1
:1019C00012F0020F03D09E6159619F61F7E712F494
:1019D000005F01D15D61F2E712F4805F01D15C61CB
:1019E000EDE7002AEBDA12F4803F01D09961E6E7D7
:1019F000520601D45861E2E7F0BD00BF00800D40FF
:101A0000394AB3EE096A394813689FED395A23F011
:101A1000010310B513600323364C1361364BD3F822
:101A2000E030D9B2016007EE901AC3F30B201B0D12
:101A3000B8EEE77A314907EE900A2060F8EEE76ADF
:101A400007EE903A37EE455A2D4BF8EEE77A37EE2F
:101A5000466A77EEE67A81ED006A25EE275AC3EDF5
:101A6000007A1368C5EE065A75EEA65AFCEEE55AE2
:101A700015EE901ADFED235A37EE657A43EA0153EB
:101A8000136027EE277A204B66EE277AD2F81011E2
:101A9000C7EE065A35EEA67ABCEEC77A17EE100AE4
:101AA00087EE867A03EA00430B43C2F81031D2F87E
:101AB000101177EE267AFCEEE77A17EE903AC3F330
:101AC0000B030B43C2F81031136843F00203136099
:101AD00000220E4B1A700E4A0E4BC3F84021012211
:101AE0000D4B1A6010BD00BF80810D40386E032081
:101AF0000000AA42346E032000441F403C6E0320C5
:101B0000406E03200000B4420000FF0F40E400E0FC
:101B1000319C00000020002008E100E00F4BDA6E4D
:101B200042F44032DA66DA6E42F44072DA66A3F5C5
:101B3000603340F237625A64A0229A649A6C1206AB
:101B4000FCD4074B40F237625A64A0229A649A6C24
:101B500012F08002FBD1034B1A70704700C00F4097
:101B600000800C4033760320F8B500BFF8BC08BCF9
:101B70009E467047000000005FF800F075A100006D
:101B80005FF800F0119E00005FF800F05DA6000015
:101B90005FF800F0958F00005FF800F0A3A0000050
:101BA0005FF800F0F99900005FF800F0618700002D
:101BB0005FF800F0A59D00005FF800F0112600001E
:101BC00045000000BD0300007D1E0000D52100007F
:041BD000452D00009F
:101BD40080C00F4000000003190000001000000046
:101BE400E8841F4001000000FF000000FF00000027
:101BF40000000000000000001800000010000000B9
:101C0400E4841F4001000000FF000000FF0000000A
:101C140000000000000000001F00000070C00F4022
:101C2400000C00001100000011000000E0841F40BF
:101C3400020000002400000012000000E0841F40A5
:101C4400010000001000000011000000DC841F40AF
:101C5400020000002500000012000000DC841F4088
:101C6400010000001E00000070C00F40C000000012
:101C74001200000013000000D0841F400100000087
:101C8400FF000000FF000000000000000000000052
:101C94001300000013000000CC841F40010000006A
:101CA400FF000000FF000000000000000000000032
:101CB4001C000000A2A0D0EBE5B9334487C068B68D
:101CC400B72699C71603550053004200200053005D
:101CD40065007200690061006C001803540065001F
:101CE40065006E00730079006400750069006E0081
:101CF4006F000403090409024B00020100C032080A
:101D04000B000202020100090400000102020100AA
:101D14000524001001052401010104240206052400
:101D24000600010705820310001009040100020ADD
:101D3400000000070503024000000705840240007C
:101D44000009024B00020100C032080B000202022B
:101D54000100090400000102020100052400100131
:101D640005240101010424020605240600010705D7
:101D7400820310000509040100020A00000007059F
:101D84000302000200070584020002000A060002A2
:081D9400EF0201400100010013
:101D9C000000000000000000000000000000000037
:101DAC000000000000000000000000000000000027
:101DBC0010B5054C237833B9044B13B10448AFF379
:101DCC0000800123237010BD482400200000000077
:101DDC00B4140100084B10B51BB108490848AFF307
:101DEC0000800848036803B910BD074B002BFBD0DB
:101DFC00BDE81040184700BF000000004C24002034
:101E0C00B4140100C02200200000000010B50446EC
:101E1C0009F0E2FF204610BD514AD36F43F4402332
:101E2C002DE9F0412DED028BD36782B04D4B04466A
:101E3C00D3F88830002B7FDBC1014B4B4B480A4653
:101E4C0000256E1C93FBF2F707F10108B8F1400F67
:101E5C000ADD092E0A4401D03546F2E703F1B773C7
:101E6C0003F558538342EAD14FF47A7306FB08F218
:101E7C003F4907F03F07CDF80080AD013D4805F420
:101E8C00E07594FBF3F3534345F6C052DB0193FB2F
:101E9C00F2F32246019333460AF034F807EE904AE7
:101EAC003549B8EEE77B33489FED276B27EE067B71
:101EBC0006EE906AB8EEE66B27EE067B06EE908A8D
:101ECC00B8EEE66B27EE067B9FED216B87EE068B5B
:101EDC0053EC182B0AF016F8FDEEC87B42F2107288
:101EEC0017EE900A02FB00F307EE103A00239FED69
:101EFC001A6BB8EEC77B98EE067BFDEEC77B17EE30
:101F0C00901A11F091F9164AD36923F4406343F403
:101F1C000063D361936A23F4FF7323F001033B4303
:101F2C001D439562A2F5A022536823F4002323F0ED
:101F3C00070343F40023536002B0BDEC028BBDE8F1
:101F4C00F08100BFAFF30080000000000000604093
:101F5C000000000060E37641000000000088C340F0
:101F6C0000C00F400040384000B29F26009AAD4E92
:101F7C004F0E002004170020760E0020F8B5FFF756
:101F8C004BFF0426344A00204FF0E0633349C2F87B
:101F9C00E0000325C2F88C60C2F89030304B314C15
:101FAC00C2F89830304B314FC2F89C30D2F8983090
:101FBC0043F4F853C2F898300B68C4F82051C4F8B5
:101FCC002851C4F824511F6040F20227DF804FF4DF
:101FDC008037C2F89470C4F87C510225C4F894552B
:101FEC00A5F60205224C98801C614FF40074D86051
:101FFC00DC82DC8306249E609C839E829D610B792F
:10200C001C4C9B0003F1804303F56C2318601A48A9
:10201C0018604020194B1870194BC2F888300A7997
:10202C00184B02F1100043F820405311012002F02C
:10203C001F029B0000FA02F203F1604303F56143B7
:10204C001A6050220B7903F1604303F564431A7054
:10205C000D4B0A79DA76F8BD00403840383D002047
:10206C001900010000801F40001F1F1FA0403840B6
:10207C0000002020450300001300008013E400E062
:10208C00010000020020002000800E40034AD2F81C
:10209C00883043F01043C2F8883070470040384015
:1020AC00034AD2F8883023F01043C2F888307047C6
:1020BC0000403840002310B5CA58C4181212C25040
:1020CC00CA1808335268B3F5806F4FEA2222626057
:1020DC00F2D110BD08B5164B164A1979D177BFF35A
:1020EC004F8F15491B681A69A1F580638A4228BF76
:1020FC00194621F01F0301F58062BFF34F8F0F4883
:10210C00036020339A42FBD8BFF34F8FBFF36F8F1E
:10211C000B48FFF7CFFF0A4801F0D8F918B9094A64
:10212C00136801331360084A13680133136008BD48
:10213C00383D002000800E40000420205CEF00E0C1
:10214C0038390020D43D0020D03D002010B5064C7D
:10215C000021204609F0F2FD2046044A0449BDE85E
:10216C00104009F099BF00BF383D0020A816002090
:10217C007D00000070B5044608460D460AF0A8FF25
:10218C0023680246294620465B68BDE87040184724
:10219C0000230A2209F0C3BE38B50546FFF7EAFF53
:1021AC000446284609F09EFE204438BD38B5431E2F
:1021BC0005460C469BB2012B0BD809F0C5FB064B10
:1021CC00B0FBF4F11A6801FB1400904238BF0325F0
:1021DC001860284638BD00BF903D002038B519481E
:1021EC00194C1A4D1A492378002BFCD02B78DB079D
:1021FC00F9D503680A689B1A0E2BF4D915491648B1
:10220C00FFF7CAFF01F0B8FE144B1022014618600C
:10221C000023114809F083FE0F4809F063FE01F01A
:10222C00AFF901F07CFD4BF68030FFF7A7FE0C49AF
:10223C00002001F077FDFFF729FF0A490648FFF758
:10224C00ABFF38BD14730320547603205376032060
:10225C00A87603207E0E0020041700202C290020D5
:10226C000040C40AB10E00202DE9F843464CB4F9E5
:10227C000030023302D101F0ABFA208000F058FD9F
:10228C0000280BDDB4F90030013311D100223E4B94
:10229C001A80FFF7FBFE01F043FD09E008D0B4F90A
:1022AC000030002B04DB0422374B1A80FFF7F8FEBA
:1022BC00B4F90000002805DD344B1968FFF776FFF0
:1022CC00314B1880B4F90030314D002B13DB01F089
:1022DC00F1F8304B2E681A68904288BF1860B4F938
:1022EC00000001F087FA2C4A2B6811689B1B208098
:1022FC008B4288BF1360294A2B68116816465B1AFB
:10230C00B3F57A7F3ED9B4F90030224F002B224C22
:10231C00DFF89C90DFF89C802BDB21492148FFF7EC
:10232C0029FF194B1F48B3F9001009F033FE1E4961
:10233C001C48FFF71FFFD9F800101A48FFF728FFB9
:10234C001A491848FFF716FFD8F800101548FFF780
:10235C001FFF16491348FFF70DFF39681148FFF7A7
:10236C0017FF12490F48FFF705FF21680D48FFF7CB
:10237C000FFF0023C9F800303B60C8F80030236021
:10238C002B683360BDE8F88320730320E41D002024
:10239C00147303200C6E0320106E0320943D002058
:1023AC00BE0E002004170020C60E0020740E002064
:1023BC00D03D0020D43D00200020704770470069BC
:1023CC0010B10368DB6818477047006910B10368E7
:1023DC001B6918477047006910B103685B6918479F
:1023EC004FF0FF307047006910B103689B691847C4
:1023FC00704707B5006910B94FF0FF3009E003686A
:10240C0001220DF107019B6898470028F4D09DF834
:10241C00070003B05DF804FB07B500698DF80710E1
:10242C0028B1036801220DF10701DB68984703B05E
:10243C005DF804FB13B50346006D0C4628B10DF195
:10244C00060201A905F0EBFA08E0586D08B9002066
:10245C0021E00DF1060201A903F067F90028F6D07E
:10246C00BDF80430BDF806200BB9002AEFD002F0FD
:10247C001F0149002170C2F34511D2126170A27084
:10248C0003F01F022271C3F343125B12013A03F5EE
:10249C00EA636271A37102B010BD13B50346006DFF
:1024AC000C4628B10DF1060201A905F0C8FA08E0A6
:1024BC00586D08B9002021E00DF1060201A903F0C6
:1024CC0044F90028F6D0BDF80430BDF806200BB94D
:1024DC00002AEFD002F01F0149002170C2F3451110
:1024EC00D2126170A27003F01F022271C3F3431267
:1024FC005B12013A03F5EA636271A37102B010BD7D
:10250C0038B5856D0446BDB94FF4807009F0BEFF37
:10251C000146A06570B10570206D20B14FF480723A
:10252C0004F0F6FE08E0606D30B14FF4807203F0F9
:10253C004DF801E0014BA365A06D38BD3276032048
:10254C00D0B5046D6CB1012B08BF002A14D2114612
:10255C00204605F07CF878B1204605F07DFC58B19A
:10256C00D0BD446D44B1204603F027FA20B120467B
:10257C00BDE8D04004F01EBA0020D0BD10B5044612
:10258C0000684368013B43603BB90368DB6A9847CA
:10259C00206810B103685B6898470023236010BD66
:1025AC00054B10B503600446036913B11030FFF7F7
:1025BC00E5FF204610BD00BF6404002010B50446A2
:1025CC00FFF7EEFF1421204609F043FD204610BD15
:1025DC00036D13B1586900217047436D13B193E833
:1025EC00030070471846F6E7036D13B1D869002154
:1025FC007047436D13B11869596970471846F6E76F
:10260C00826B30B562B1137803F0080303F0FF005E
:10261C00FBB1D3695069181A1BD56FF0004018E054
:10262C00C06BB0B190F831301B0707D5D0E9044529
:10263C00D0E90023A01A65EB030101E00020002182
:10264C0000236FF000428B4208BF824201D2104639
:10265C0030BD30BD08B51030FFF7D2FF08BD08B54E
:10266C001830FFF7CDFF08BD836B1BB11B7813F03F
:10267C00700F05E0C06B30B190F8313013F0500F93
:10268C0014BF01200020704708B51830FFF7ECFF8D
:10269C0008BD10B504461830FFF7E6FF60B1206D99
:1026AC0010B1002104F0D3FF606D28B1002200238B
:1026BC00BDE8104003F081B910BD836B23B9C06B2A
:1026CC00003018BF012070470120704710B5044638
:1026DC00806D18B109F0E2FE0023A3651834204682
:1026EC00FFF7EBFF20B12046BDE8104006F042BAE0
:1026FC0010BD0000064B10B503600446FFF7E6FF63
:10270C00044B04F11800A36006F034FA204610BD07
:10271C00B40400201804002010B50446FFF7EAFFAB
:10272C005C21204609F095FC204610BD08B51830F8
:10273C00FFF7C3FF08BD0346806B08B104F057BF19
:10274C00D86B08B103F024B94FF0FF30704708B5CF
:10275C001030FFF7F0FF08BD08B51830FFF7EBFF9E
:10276C0008BD0346806B08B104F086BED86B08B177
:10277C0003F04CB84FF0FF30704707B501220DF154
:10278C0007011030FFF7EDFF01280CBF9DF8070083
:10279C004FF0FF3003B05DF804FB08B51830FFF7BD
:1027AC00E0FF08BDD0B4846B44B1012B08BF002AF4
:1027BC0009D220461146D0BC04F049BFC06B10B101
:1027CC00D0BC03F0FAB80020D0BC704738B5014635
:1027DC00049814461D4610B901F118001DE001289B
:1027EC000AD10B6D01F118000BB15A6912E04B6D57
:1027FC007BB1D3E900230EE0022811D10B6D01F15E
:10280C0018000BB1DA6905E04B6D13B1D3E9042361
:10281C0001E00022002312196B41FFF7C3FF38BD02
:10282C00002038BD0346806B08B105F03BB8D86B6F
:10283C0008B103F0CFBE704708B51030FFF7F2FFB8
:10284C0008BD08B51830FFF7EDFF08BDF0B5D0F89E
:10285C0038E09DF814409DF818509DF81C609DF8C8
:10286C002070BEF1000F08D00897704607960695A9
:10287C000594BDE8F04005F098BAC06B38B10897E4
:10288C00079606950594BDE8F04004F009B8F0BD34
:10289C001FB58A79A2F150031B0611D40C7802F2F1
:1028AC006C724B79183003944C7801330294DBB280
:1028BC008C780194097900910421FFF7C7FF00E09F
:1028CC00002004B010BD1FB58A79A2F150031B067D
:1028DC0011D40C7802F26C724B79183003944C784A
:1028EC0001330294DBB28C780194097900910221B6
:1028FC00FFF7ACFF00E0002004B010BD0346806B76
:10290C0008B105F0DDBAD86B08B104F0B3B8704764
:10291C0008B51030FFF7F2FF08BD07B502AB012276
:10292C00103003F8011D1946FFF7E8FF03B05DF8FE
:10293C0004FB08B51830FFF7E1FF08BD10B50446DD
:10294C00006940B10368DB6A984704F11000BDE8E8
:10295C001040FFF713BE10BD38B500250E4B0446D2
:10296C0010314560183040F8183C11F80C3C00F858
:10297C000C3C0A4B40F8103C51F8083C40F8083C21
:10298C0011F8043C00F8043C06F0C3F8044BA565B0
:10299C002046A36038BD00BFB40400201005002001
:1029AC00900400202DE9F04395B000251C4B4FF40A
:1029BC007A760DF150082A461831044604A848F8D6
:1029CC00503D8DF8045002968DF80C5012951395CD
:1029DC0006F023F904A8DFF85090FFF76EFE80B1E3
:1029EC005C2009F034FB07464146FFF7B5FF7B68D6
:1029FC0025710133A6602573C4F8009027617B60B4
:102A0C0005E02071A6602073C4F800902061054B8E
:102A1C0004A8009306F0AEF8204615B0BDE8F0838C
:102A2C00900400201804002064040020012B70B5D1
:102A3C00044694B005D0022B40F2022318BF0023A9
:102A4C0001E044F202230431684606F073F904A84D
:102A5C00FFF733FE114E90B15C2009F0F8FA69468D
:102A6C000546FFF779FF00234FF47A722660237135
:102A7C0023736B68A260013325616B6006E04FF431
:102A8C007A7320712073A36026602061044B04A824
:102A9C00009306F06FF8204614B070BD640400205B
:102AAC001804002070B51F4B8EB04FF47A72054697
:102ABC000193002303920E468DF8083006A88DF87A
:102ACC00103005930223184A1849FFF7AFFF0A9BF1
:102ADC0013B15A6801325A60059B13B105A8FFF770
:102AEC004DFD0A9B002406A80593FFF759FDB4423F
:102AFC000FDA35F8142006A80D4901340AF094FABF
:102B0C0006A80AF0E5FA06A9024601A8FFF757FC49
:102B1C00EDE701A8FFF712FF01A8FFF741FD0EB08A
:102B2C0070BD00BF64040020CA0E0020486E032054
:102B3C00D60E00200448012310210380034B1B6890
:102B4C008380FFF7AFBF00BF46730320E41D002056
:102B5C0010B5244C24492046FFF71EFB2349204680
:102B6C00FFF71AFB22492046FFF716FB21492046A6
:102B7C00FFF712FB20492046FFF70EFB1F492046AA
:102B8C00FFF70AFB1E492046FFF706FB1D492046AE
:102B9C00FFF702FB204609F0A5F91B492046FFF779
:102BAC00FBFA1A492046FFF7F7FA19492046FFF7B6
:102BBC00F3FA18492046FFF7EFFA204609F092F98C
:102BCC0015492046FFF7E8FA14492046FFF7E4FAC6
:102BDC0020461349FFF7E0FA2046BDE8104009F003
:102BEC0081B900BF04170020DD0E0020E40E002088
:102BFC00F80E0020130F00202D0F0020570F00207F
:102C0C006B0F00207E0F0020920F0020AF0F0020D2
:102C1C00C10F0020D30F0020F20F00201310002052
:102C2C00341000201FB5184C08F08EFE02A900F0DD
:102C3C0071F916492046FFF7AFFA154B28221549B2
:102C4C001B68204609F05EF99DF80C109DF80E20CB
:102C5C0020469DF80D30009102F2B2720E4909F037
:102C6C0051F99DF808109DF8093020469DF80A206E
:102C7C0000910A4909F046F9094B0A4920461A689D
:102C8C0009F040F904B010BD041700205B100020BF
:102C9C002C2900208110002093100020AC10002063
:102CAC00E41D0020C510002010B504468AB007F0C2
:102CBC00B5FE0028FBD06A4628230D21074809F0F1
:102CCC00D9F80AAB224606491844002300F8283CE0
:102CDC0068460AF0CFF90AB010BD00BF04170020F7
:102CEC001B11002070B5044690B00D46164607F037
:102CFC0095FE0028FBD006AA28230D210A4809F0CE
:102D0C00B9F810AB224609491844002300F8283CB6
:102D1C000DF11703029606A801930DF11603009509
:102D2C000AF0A8F910B070BD04170020D3100020D1
:102D3C0010B588B007F072FE002800F0C08007F0D4
:102D4C00A3FEC0B23A2842D107F068FE0028FBD09F
:102D5C0007F09AFEC0B2732809D15A495A48FFF7B6
:102D6C0009FA5A495848FFF705FA0120A8E06528E6
:102D7C000AD154495448FFF7FDF955495248FFF719
:102D8C00F9F94FF0FF309BE0682802D1FFF7E0FE25
:102D9C0095E0772802D1FFF7CDFE90E06C2802D1A8
:102DAC0000F0E8FC8BE0622840F0898045494648F9
:102DBC00FFF7E0F947494448FFF7DCF907F064FFF7
:102DCC00642008F0E1FC444A444B1A6077E03F2849
:102DDC0034D107F023FE0028FBD007F055FEC4B217
:102DEC0008F0B2FD06A900F095F8702C02D1FFF79F
:102DFC0019FF64E0642C0AD19DF81C109DF81E206C
:102E0C0000919DF81D3002F2B272354909E0742C24
:102E1C000BD19DF818109DF8193000919DF81A20CF
:102E2C003049294809F06EF849E0612C47D12E4B06
:102E3C002E491A68244809F065F840E021283ED153
:102E4C0007F0ECFD0028FBD007F01EFEC0B2642892
:102E5C0015D105AA04A903A8FFF744FF08F074FDD7
:102E6C0006A900F057F8039B9DF818200193049BCA
:102E7C009DF8191000939DF81A00059B17E0742813
:102E8C0018D105AA04A903A8FFF72CFF08F05CFDD4
:102E9C0006A900F03FF89DF81E2003A89DF81C30F1
:102EAC0002F2B27201929DF81D20009207C800F048
:102EBC0025F904E0612802D10B48FFF7F5FE00204C
:102ECC0008B010BD5C12002004170020DE1000209A
:102EDC00E4100020E91000200400FA050CED00E0DD
:102EEC009C100020B5100020E41D0020CF10002005
:102EFC0008B508F029FD4FF46163B0FBF3F0044B07
:102F0C001A6890421ABF18600120002008BD00BF4B
:102F1C00046E03203C234FF4C87C2DE9F041B0FB38
:102F2C00F3F403FB140240F26D184FF0640E0A70B8
:102F3C00B4FBF3F203FB124318244B704FF46163A0
:102F4C00B0FBF3F3B3FBF4F204FB123307220024BF
:102F5C008B70384BB0FBF3F0031DB3FBF2F2C2EBFA
:102F6C00C2029B1A22460133CB70E6B206F2B27350
:102F7C0013F003070ED193FBFEF50EFB153565B967
:102F8C0093FBFCF50CFB1535002D14BF45464FF497
:102F9C00B77504E040F26D1501E04FF4B7752A44A3
:102FAC0001349042E1D28E7197B9642593FBF5F40C
:102FBC0005FB14347CB94FF4C87593FBF5F405FB91
:102FCC001434002C40F26D1408BF4FF4B77404E0B5
:102FDC0040F26D1401E04FF4B774121B64264FF4E9
:102FEC00C874DFF854E0801A93FBF6F206FB123635
:102FFC0093FBF4F204FB12330022012AD5B206D162
:10300C0047B94EB9002B14BF1C241D2405E012F83F
:10301C000E4002E01C2400E01D24844204D801323E
:10302C00001B0C2AE9D11546013501304D71087190
:10303C00BDE8F081805101003A0E0020F0B52C4B18
:10304C0040F2B271827964254FF4C8765343A1F2F1
:10305C00B274A24211DD8C070DD191FBF5F405FB86
:10306C00141424B991FBF6F406FB14141CB903F5E3
:10307C00A83303F5C0730131E9E702F2B27264249C
:10308C004FF4C87546791B4FDFF86CE092FBF4F1F6
:10309C0004FB112492FBF5F105FB1125012102F033
:1030AC0003028E4211DD022907D132B904B925B9C8
:1030BC0003F5181303F56E5305E007EB010C1CF830
:1030CC0001CC0EFB0C330131EBE742784FF4616419
:1030DC008178C2EB0212920004FB012201780A44AF
:1030EC0001790548013900FB01201844F0BD00BFEF
:1030FC008033E1013A0E00208051010013B5059C8C
:10310C008DF8020002A8632C8DF8043000F8082D0D
:10311C00CCBFA4F2B2741E348DF801108DF80640A9
:10312C00049C8DF80540FFF789FF08F021FC02B0E4
:10313C0010BD2DE9F843089D0746164603EB01091F
:10314C000C464C450ED03B68324621463846DB686F
:10315C0004F10108984730B12046099A314644469B
:10316C00A847EEE70120BDE8F8832DE9F0410546BC
:10317C001F4602EB01080C4644450DD02B68204637
:10318C0006991E6AB8472146024628460134B047C4
:10319C000028F1D1BDE8F0810120BDE8F0814FF0AD
:1031AC00FF307047044B1B685966DA6D12F4F81F38
:1031BC00FBD05B6F704700BFB41600200723416043
:1031CC0083607047704773B515460C46064608F089
:1031DC00BBFB6946FFF79EFE9DF806309DF8052067
:1031EC000A3B9DF804109BB27F2B09D80C2A07D8F8
:1031FC001F2905D841EA421141EA43239BB200E062
:10320C00002333809DF802309DF80110172B9DF898
:10321C0000200AD83B2908D83B2A06D8490141EAA4
:10322C00C32343EA52039BB200E0002312F00102D5
:10323C00238018BF64222A7002B070BD1346024866
:10324C00024A01F007BA00BFB4160020382900204A
:10325C0038B50C461546FF21204607F049F92B4698
:10326C0022462146024801F0F5F9002038BD00BF86
:10327C00B416002084B004A800E90E00014804B084
:10328C0001F0DCB8B416002010B5044600684368A1
:10329C00013B43603BB90368DB6A9847206810B177
:1032AC0003685B6898470023236010BD037B002BE9
:1032BC0023D0124BDA7C02B3D20702D5996A104A9A
:1032CC001160DA7C900703D50C4AD16A0D4A116063
:1032DC00DA7C510703D5094A116B0B4A1160DA7C71
:1032EC00120703D5054A516B084A1160DB7CDB06DB
:1032FC0003D5024B9A6B064B1A607047B41600202C
:10330C0000E100E004E100E008E100E00CE100E095
:10331C0010E100E0054BFF221B685A66DA6D12F4CF
:10332C00F81FFBD0586FC0B2704700BFB416002016
:10333C0008B5FEF71FFF08BD38B50546FEF728FF98
:10334C000446284608F0CEFD204438BDD0F8803421
:10335C0033B198794FF4007303FA00F080B27047E0
:10336C00D0F8840408B1D0F83C047047D0F880340D
:10337C0013B1D86901387047D0F8840408B1D0F87B
:10338C00300470470346D0F8800408B104F07ABFCB
:10339C00D3F8840408B102F0FDBE704713B502AB3C
:1033AC0003E90600C37C0099002B2ED072B6C37CB7
:1033BC00DA0705D5324A43691468234083621360E7
:1033CC00C37C9B0705D52F4A836914682340C362CD
:1033DC001360C37C5C0705D52B4AC3691468234072
:1033EC0003631360C37C1A0705D5284A036A146863
:1033FC00234043631360C37CDB0605D5244A436A30
:10340C00146823408363136062B683688B422AD0AE
:10341C00204B81609A69204BC2F30114C2F3826283
:10342C0053F824300132B3FBF2F211B1B2FBF1F3D9
:10343C0000E013467BB1B2FBF3F2914238BF01338B
:10344C00B3F5817F02D2022B04D901E040F20113C3
:10345C00023B00E000235A0843EA0223120402F460
:10346C007F021343C360036800221A6103225A626D
:10347C00C2681A64019A1A6601221A6102B010BD60
:10348C0080E100E084E100E088E100E08CE100E014
:10349C0090E100E000C00F404006002008B5037B1F
:1034AC002BB1043090E806000148FFF777FF08BD08
:1034BC00B4160020044A13885088834238BFC8339E
:1034CC00181A80B2704700BF286E032038B50B4D18
:1034DC0001462C886B880134A4B2C82C28BF002468
:1034EC00A34209D068684FF4806200EB842007F097
:1034FC0021F82C80012038BD002038BD286E032017
:10350C0070B50F4E0D4674883388B4FBF1F4B3FBE1
:10351C00F1F39C4212D08A02716802FB041107F08D
:10352C0009F8C823611C0120B3FBF5F389B2994259
:10353C0028BF002115FB01F1718070BD002070BD0A
:10354C00286E032010B50446012108F06BFA044BD9
:10355C0020011A181B58D268C3F8842010BD00BF74
:10356C008C080020054B00011A181B58D26811B1A9
:10357C00C3F884207047C3F8882070478C0800205B
:10358C006D4A00216D4B6E482DE9F0478EB01A60E4
:10359C0008F000FD6A4808F0A5FC00260A20694DD9
:1035AC00DFF8CC81FFF7CEFF642008F0EDF84FF088
:1035BC000A0C4FF0000E644B05AA08AC8DF814C031
:1035CC000793B7B28DF815E0CDF81880C5F8BC3468
:1035DC0085F8B4C485F8B5E4C5F8B88407CA84E89E
:1035EC0007000A930BAB8DF820C08DF821E0CDF8C5
:1035FC00248094E80700554C83E8070020460ECB46
:10360C0005F056FD95F8AF94C5F89044B9F1000F4C
:10361C0004D0092F8CBF0024012407E02146A4F21A
:10362C009C4005F029FB0028F3D04C46013664B1D0
:10363C003946434808F0AEFC45494148FFF778FE4F
:10364C004FF47A7008F0A0F8B1E7092F414E424DC3
:10365C00424F08D942493A48FEF79EFD0123346097
:10366C002C603B6065E03F48FFF780FE82463D489A
:10367C00FFF76CFEAAFB00893A48FFF783FEC0EB0C
:10368C000A0A3848FFF762FEAAFB00234FF00A0A29
:10369C0035492B48CDE90223344B22461B68009355
:1036AC000A2308F02FFC42464B460194CDF800A0AB
:1036BC00234808F078FC26492148FFF739FE01948D
:1036CC00CDF800A01E48DDE9022308F06CFC1C4874
:1036DC0008F008FC2348FFF749FE01461848FEF79E
:1036EC0057FD1B491648FFF723FE1E48FFF74AFEFD
:1036FC0001461348FEF74CFD15491148FFF718FE1B
:10370C001848FFF723FE410A0D483960FFF714FEF5
:10371C000F490B48FFF70CFE1248FFF733FE01462A
:10372C00306028600648FFF707FE09490448FFF798
:10373C00FFFD0EB0BDE8F08737140000543D0020AB
:10374C0004170020486E0320186E0320E872032033
:10375C00740E0020DC6D0320E06D0320D83D0020AA
:10376C00F71000204C6E032006110020DC1D0020F9
:10377C00408AF70137B50F4C0F4D20462946FFF70D
:10378C00D7FD0E4B00220E491B68204600930A23DE
:10379C0008F0B8FB0B48FFF7F5FD0B4B02460B4945
:1037AC001B68204608F0AEFB29462046FFF7C0FDFB
:1037BC0003B030BD041700205C120020DC1D00207B
:1037CC00061100204C6E0320DC6D03201811002024
:1037DC00054B4FF0FF301B68B3F5962F22BF034A01
:1037EC00034B1A60704700BFE06D03200400FA051C
:1037FC000CED00E02DE9F043041E95B0C0F2DC8026
:10380C000421A848FFF77CFE00287BD0A64A136849
:10381C000133136004BBA54B0122A54F9846DFF87A
:10382C00E4923D461A733C68A14E002C7EDC59F89C
:10383C002430002B00F0C2804FF499639D4803FBA9
:10384C0004000430FFF79EFD9B4BB0F5962F43F818
:10385C002400C0F0B38069E0012C46D108F074F864
:10386C0006A9FFF757FB9DF81820944D02240492EB
:10387C009DF8192028469DF81E3003929DF81A20B9
:10388C0003F2B2738E4902929DF81C2001929DF8AE
:10389C001D2000928B4A09F0C7FB042201302A50EC
:1038AC002B18894ADC6012685A604BF680329A6099
:1038BC00864A12681A6100225A61552385F8FC3138
:1038CC0085F8FD3185F8FE3185F8FF31804B18699C
:1038DC0010B96FF0010084E103684FF400722946BF
:1038EC00DB689847B0F5007FF3D3794B1869002853
:1038FC00EFD003684FF480526A49DB689847B0F503
:10390C00805FE6D3032C06D17148FEF76CFD70483E
:10391C00FFF714F84EE0042C4ED16D48FEF763FD12
:10392C006B48FFF70BF84FF0FF305AE10023604C67
:10393C0088F80C303368002B1CDC5E4D4FF4996713
:10394C00644A07FB035364480433136008F0CAFA53
:10395C002168614808F01EFB60495F48FFF7E8FCEE
:10396C00206807FB00500430FFF70CFD01465A4855
:10397C00FEF70EFC5A4A3368116813608B42594D9E
:10398C001EBF594900200860012B1BBF4FF49961E1
:10399C00484A002301FB03232B60002B99D0534C86
:1039AC002768FFF7A5FA68B92368052B91DC002B73
:1039BC0040F3CF80002014E1204612E12B68013344
:1039CC002B6030E707F0C0FF06A9FFF7A3FA3E4AC9
:1039DC009DF81AE09DF81C009DF81D109DF81E30F6
:1039EC006FB903F2B27302900191CDF80CE0009321
:1039FC003F4913683F48404A09F016FB0DE003F2BB
:103A0C00B273029001910497CDF80CE000933B49FE
:103A1C0013683848384A09F007FB39492E48FFF734
:103A2C0087FC34492C48FFF783FC2B68D3F88414AB
:103A3C0059B100232F4A06A88DF818308DF819308B
:103A4C008DF81A3003F0CAFF21E0D3F8880490B93E
:103A5C002B68D3F88414E9B10023264A01F5896157
:103A6C0006A88DF818308DF819308DF81A3001230E
:103A7C0004F076F855E08DF849100B468DF84A1095
:103A8C008DF84B1001461B4A06A802F003FA0028D9
:103A9C0049D1DDE7D3F88804B0BB23680133236038
:103AAC0041E000BFDC5D0320E46D0320186E0320B1
:103ABC00403D0020486E0320E06D032092730320EC
:103ACC0088110020831100202C290020E41D0020E7
:103ADC00F06D0320883D002004170020C70E002045
:103AEC0054180020146E0320046E0320983D00200F
:103AFC0020110020927503201E1100203B11002084
:103B0C005C120020DC6D03208DF8491001238DF828
:103B1C004A108DF84B1000F58961334A06A802F063
:103B2C000BFE0028B9D02B68D3F8840418B12E49A9
:103B3C0004F05CFC08E0D3F8880410B92368013366
:103B4C0005E0294902F0CCFB0028F7D000232360C4
:103B5C002AE707F0F9FE06A9FFF7DCF99DF8182013
:103B6C009DF81A3001929DF81920204900922048A6
:103B7C00204A09F059FA20492048FFF7D9FB31684F
:103B8C001E4808F007FA1E491C48FFF7D1FB1849DC
:103B9C001A48FFF7CDFB2968154A06A80B681C6864
:103BAC000223A0470A9B13B15A6801325A60154C84
:103BBC0023691BB104F11000FFF766FB0A9B06A8F2
:103BCC002361FEF7EDFC206920B90F490B48FEF785
:103BDC00E3FA7EE603681B6B984700287FF43EAE41
:103BEC00F3E715B0BDE8F083927503205D1100205A
:103BFC00E27503205B1100205C12002004170020EA
:103C0C00C70E0020F06D03207111002038B5214A39
:103C1C000024214B21485A605C801C804FF47A733D
:103C2C001F4D83601F4B2A46047104731E490360A9
:103C3C00046108F031FA1D4B20461D4A1D491A60DB
:103C4C001D4A5A6007229A6001221A731B4B196095
:103C5C0083F8AD2429221A4983F8AF24FF22C3F834
:103C6C009414184983F8C5242A46C3F8A014C3F841
:103C7C008444C3F8884483F89C4483F89D4483F8B7
:103C8C00B24483F8C04483F8C4440F49BDE83840BB
:103C9C0008F002BADC3D0020286E0320F06D0320F2
:103CAC00A81600206404002011080000186E0320E0
:103CBC00F00300203405002000093D00486E03206D
:103CCC0088050020E8050020351400000368C9B2FF
:103CDC001B681847F8B549001E46012503681746AE
:103CEC00044683F8A510110A83F8305183F82F513C
:103CFC000068FFF7EBFF39462068FFF7E7FF206805
:103D0C00310AFFF7E3FF31462068FFF7DFFF294652
:103D1C00206800F049FAB0FA80F04009F8BD70470D
:103D2C00704700002DE9F041894E05460F461424DA
:103D3C003068012180F8A54080F8301180F82F11EF
:103D4C0000F032FA30B12146824806F0ADFE8248CE
:103D5C0008F0C8F8306814230124002180F8A5303D
:103D6C0080F8304180F82F41FFF7B0FF0621306812
:103D7C00FFF7ACFF00213068DFF8D48100F014FAB3
:103D8C00D0B9234622460A21D8F8000000F07AFA6E
:103D9C0090B1D8F8000003685B6998470602D8F820
:103DAC00000003685B699847304380B225B1B028A6
:103DBC0002D12046BDE8F08144F2600330220A2192
:103DCC006348FFF787FF10B90020BDE8F0816C2332
:103DDC0026220A215E48FFF77DFF4FF4F973282253
:103DEC000A215B48FFF776FF40F622732C220A214A
:103DFC005748FFF76FFF44F246433C220A215448D0
:103E0C00FFF768FF40F2371324220A215048FFF7CE
:103E1C0061FF8DB3514B34220A214D489D428CBF1A
:103E2C0001230023FFF756FF07EE907A0A2148483A
:103E3C00B8EE677A07EE905AF8EE676AB7FBF5F3BF
:103E4C00C7EE267A03F01F0307EE103AB8EEC77AD6
:103E5C0077EEC77A9FED427A67EE877AFCEEE77AC7
:103E6C0017EE902AC2F30A0242EAC3233222FFF76A
:103E7C0031FF44F2FF5301E044F2FF0330220A21E8
:103E8C003348FFF727FF732302220A213048FFF73C
:103E9C0021FF4FF4C87007F077FC41F61D532E221A
:103EAC000A212B48FFF716FF3DB1072304220A21F4
:103EBC002748FFF70FFFB02306E004230A2124480C
:103ECC001A46FFF707FF302306220A212048FFF786
:103EDC0001FF0A2210231E481146FFF7FBFE0023A8
:103EEC000E220A211A48FFF7F5FE43F63C43102236
:103EFC000A211748FFF7EEFE47F67F7322220A21AC
:103F0C001348FFF7E7FE362324220A211048FFF757
:103F1C00E1FE40F273132A220A210D48FFF7DAFE64
:103F2C0000283FF451AF882320220A210848FFF7CC
:103F3C00D1FE00283FF448AF322324220A21044842
:103F4C00FFF7C8FE003018BF0120BDE8F08100BFAC
:103F5C00086E0320A81100200417002040660301FE
:103F6C00000000450248034B18600FF061B900BF18
:103F7C0014170020086E0320024BD3F8200220F007
:103F8C007F40704700441F400C4B1B6810B49C686A
:103F9C00B4F90E40844204D0DB68B3F90E30984279
:103FAC0001D1074B186820B103685DF8044B5B68BE
:103FBC00184710465DF8044B704700BFD81D002011
:103FCC00E01D002090F8A32090F8A200101A704772
:103FDC0090F8A23090F8A3209A4281BF5A1C1B186B
:103FEC0080F8A220987E98BF4FF0FF30704790F871
:103FFC00A23090F8A3209A4286BF1B18987E4FF0EF
:10400C00FF3070477047B0F830312BB190F82F313A
:10401C00882B03D901230371002070475A1C0344D9
:10402C0080F82F21012083F8A510704738B504467D
:10403C00B0F830011546A0B194F82F31C3F18902C4
:10404C00954282BF01201546207104F1A5002A4635
:10405C00184406F06FFA94F82F3128462B4484F854
:10406C002F3138BD2DE9F74FD0F814E00746037E09
:10407C0015243A4A0EEB0313197A437E09010EEB11
:10408C000313501893F82830D0F80CC01B01D0F84B
:10409C0004905058D518EE68C9F80040C0F884C098
:1040AC004168D5F804A04CEA01012D4D4160CAF8D5
:1040BC000040D4582B4AC4F8846063682A493343BF
:1040CC006360D2F800802B680195B3FBF1F30A21F1
:1040DC0059431368C8EB03039942FAD80923816842
:1040EC001CEA010F04D0A1680E4201D0012025E08A
:1040FC000199C4F888601C4DD2F800B00968B1FB76
:10410C00F5F101EB8101D2F80080CBEB08084145B9
:10411C00F9D81449C4F88460D1F800B00199124D53
:10412C000968B1FBF5F101EB8101D2F80080CBEB12
:10413C0008084145F9D8013BD1D118463B7E0EEB1E
:10414C000313DB68C9F800307B7E0EEB031EDEF830
:10415C002C30CAF8003003B0BDE8F08F8C0800207A
:10416C00B0160020041000E040420F000D4B10B5BB
:10417C00196804460069426912F0007F05D1236971
:10418C004FF4FE4201205A6110BDD201F7D41A68D7
:10419C00521A102AEFD92046FFF764FF0028EED1FF
:1041AC0010BD00BF147303202DE9F04790F82F6168
:1041BC0007460C46002E4ED0FFF7D8FF00284AD0F9
:1041CC002F4B00254FF4007AD3F800909846B54257
:1041DC003B691DD8D96D01F00701032918D835B9F1
:1041EC0097F8A52042F480621A6601220DE0B542D0
:1041FC0005F1010204D23D4495F8A500186604E0CF
:10420C000CB1C3F860A0154602E001311546E4E795
:10421C005A69110504D51A6942F440721A611AE000
:10422C00500509D51A69022042F440721A614FF404
:10423C0000721A66BDE8F087910405D4D8F8001016
:10424C00C9EB0101322909D91A6942F440721A6189
:10425C004FF400721A660420BDE8F087B54206D907
:10426C00D86D10F0070002D1930506D414B107F0F5
:10427C00BFFCACE72046BDE8F087BDE8F08700BF87
:10428C00147303202DE9F04705460E4690461F4651
:10429C00FFF76CFF002871D07600404BB8F1000F8F
:1042AC004FF00004F6B2D3F8009008BF4FF00108AD
:1042BC009A4646F4806685F8A24085F8A34046F0FD
:1042CC000106032C2B691BD0DA6D08F1FF314FF47A
:1042DC00007002F0070241F480712244C4EB020E1C
:1042EC00BEF1030F0DD8032C0AD00CB91E6605E0E5
:1042FC00012C01D1196601E007B118660134EDE714
:10430C00032495F8A320872A0FD8DA6DC2F3024252
:10431C005AB195F8A310872907D8481C2944013AAB
:10432C0085F8A300186F8876F2E72B695A69100597
:10433C0004D51A6942F440721A6113E012F4105F4A
:10434C001FD1DAF80010C9EB0101322919D895F800
:10435C00A31041451FD3032C1DD1D96D49071AD188
:10436C00920516D5DA6D12F4E02F03D01A6942F4D7
:10437C0000721A6195F8A300BDE8F0870420BDE82F
:10438C00F0871A6942F440721A614FF400721A668F
:10439C00E8E7002FE6D007F02BFC92E7147303201C
:1043AC000369002213481A61814209D8124A9A649F
:1043BC0001225A62114A9A624FF43032DA620EE0EC
:1043CC000F4881420F4904D80F4898645A620F4A2B
:1043DC0003E00F4898645A620E4A9A62D9629A6C4A
:1043EC001A6500221A624FF001129A6501221A61B5
:1043FC00704700BF7F1A06003B372819B80B05051C
:10440C003F420F00007F05001C1A120C100E020216
:10441C000A09070460090101C38B1B0402D4C1F310
:10442C000E0105E0C38BC1F3080103F47E4319436D
:10443C00C183C38B9BB2C382704700004368196869
:10444C0030B50A685C6822EA0402744C0A60A269FE
:10445C0022F0E05222F0300242F0006242F01002F0
:10446C00A261047C6E4A1C44247C02EB0414A568F3
:10447C00B8242C60457C1D4495F8205002EB0515A2
:10448C00AD682C60857C1D4495F8305002EB051509
:10449C00AD682C600D685C682C430C60017C5C186A
:1044AC0003EB8101247C496902EB041464682160EC
:1044BC00417C5C1803EB810194F82040496A02EBC3
:1044CC00041464682160817C5C1803EB810194F80E
:1044DC003040496B02EB041252681160827CD96B3C
:1044EC001A4492F838200A60027CD9691A44127E68
:1044FC000A60427CD96A1344022293F828300B607C
:10450C0003681A610F229A65C37C002B2ED072B6F9
:10451C00C37CDD0705D5434A436911680B408362B0
:10452C001360C37C9C0705D53F4A836911680B4017
:10453C00C3621360C37C590705D53C4AC369116833
:10454C000B4003631360C37C1A0705D5384A036A12
:10455C0011680B4043631360C37CDB0605D5354AF9
:10456C00436A11680B408363136062B632498368F7
:10457C008B4227D0294B81609A69304BC2F30114CE
:10458C00C2F3826253F824300132B3FBF2F2B2FB75
:10459C00F1F37BB1B2FBF3F28A4288BF0133B3F57E
:1045AC00817F02D2022B04D901E040F20113023BBD
:1045BC0000E000235A0843EA0223120402F47F02AB
:1045CC001343C360036800221A6103225A62C26853
:1045DC001A6407221A6601221A61C37CE3B1DD0753
:1045EC0002D5826A164B1A60C37C9C0702D5C26A3C
:1045FC00144B1A60C37C590702D5026B124B1A601C
:10460C00C37C1A0702D5426B104B1A60C37CDB06C5
:10461C0002D5826B0E4B1A6030BD00BF00C00F403C
:10462C008C08002080E100E084E100E088E100E0FB
:10463C008CE100E090E100E000093D004006002024
:10464C0000E100E004E100E008E100E00CE100E042
:10465C0010E100E070B54BB3046840F20125256110
:10466C001C46066811B10D78013101E090F83C5000
:10467C00013C756605682E6FB60705D46D6FEDB2FB
:10468C000AB115700132013B05686D69ED07F1D572
:10469C00002CE6D153B101680C6FA407FAD4496F12
:1046AC00C9B20AB111700132013BF3E770BD0000D1
:1046BC00836C10B51A7904461C4BDA77426C12796C
:1046CC001A77826C12791A77026CDAB1B2F5004F54
:1046DC0004D3A2F5FF427F3A02640BE0436C11460F
:1046EC001868FFF799FEA36C216C1868FFF794FE0D
:1046FC0000232364A36C1A790C4BDA76626C127962
:10470C00DA7610BD03680F21996540F20131DA6148
:10471C0019614FF47C5159610323114680F83D30E7
:10472C00C06C0368BDE810401B68184700800E4041
:10473C0008B50248FFF7BCFF08BD00BFB416002047
:10474C0070470A46D0F8841400B58FB051B10023DD
:10475C0068468DF800308DF801308DF8023003F08A
:10476C003DF90DE0D0F8880450B18DF831100B46AE
:10477C008DF832108DF833100146684601F08AFB33
:10478C000FB05DF804FB0A46D0F8841400B58FB066
:10479C0071B1002368468DF800308DF801308DF82A
:1047AC00023003F01BF9A8B1684603F054F811E08D
:1047BC00D0F8880470B18DF831100B468DF832109A
:1047CC008DF833100146684601F064FB10B1684661
:1047DC0001F067FE0FB05DF804FB0A46D0F88414B4
:1047EC0000B58FB079B1002368468DF800308DF894
:1047FC0001308DF80230012303F0F0F8A8B16846BF
:10480C0004F02EF911E0D0F8880470B18DF8311055
:10481C0001238DF832108DF833100146684601F0F3
:10482C0039FB10B1684601F0F9FD0FB05DF804FBDF
:10483C0010B5D0F884448EB00A466CB1002304F550
:10484C00896168468DF800308DF801308DF80230A2
:10485C00012303F085F910E0D0F8881461B101232D
:10486C0001F5896168468DF831408DF832408DF83C
:10487C00334001F061FF00E008460EB010BDD0F8E7
:10488C00843430B515468FB0ABB1002203F5896482
:10489C0068468DF8002013468DF801208DF8022013
:1048AC000A46214603F046F8D8B12A462146684606
:1048BC0003F0ABF915E0D0F8880490B100F58964E9
:1048CC000A4668468DF8313021468DF832308DF825
:1048DC00333001F081FA20B12A462146684601F0B6
:1048EC008BFF0FB030BD03460430D3F8842410B5D1
:1048FC0012B1D469013C04E0D3F888440CB1D4F86B
:10490C003044FEF723FDA4FB000110BD38B503466F
:10491C00051DD0F8840420B1C469013C03F0B2FC3D
:10492C0008E0D3F8880420B1D0F8304401F032FC10
:10493C0000E00446241A2846FEF708FDA4FB0001FB
:10494C0038BD38B500F59265FF23044680F8BC14D9
:10495C0080F8B034284605F02DFBC4F88C5428465A
:10496C0004F004FF30B9D4F88C142046BDE838406C
:10497C0004F082B9002038BD70B588B0064601A895
:10498C0005AD06F29C4480E80E0007C885E80B00D4
:10499C00204695E80E0004F08BFBC6F88C442CB135
:1049AC0096F8AB04B0FA80F0400900E0204608B05D
:1049BC0070BD30B590F8B03485B00446FF2B04D1EF
:1049CC0090F8BC14FFF7BDFF19E0D0F8B414D0F880
:1049DC00B8248DF8043004AB90F8B15402918DF8E2
:1049EC000550039213E90E00FFF7C6FF38B1D4F857
:1049FC008C14204605B0BDE8304004F03DB905B03C
:104A0C0030BD2DE9F041D0F890448CB006461F46DD
:104A1C000CB9002024E0236820469B699847B0F528
:104A2C00405F8046F5D94FF4007007F02FFD054626
:104A3C000028EED0B8F1806F02463B46214601A813
:104A4C0002D900F071FB01E002F036FB0446284667
:104A5C0007F024FD002CDCD0301DFFF7AAFF01204D
:104A6C000CB0BDE8F08100007FB5D0F8906405462D
:104A7C000EB9002027E090F8C42490F8C534BAB1E0
:104A8C00FE2B05D03368694630469B6B98471AE07D
:104A9C00336830465B6C9847421CF3D090B995F85C
:104AAC00C534FE2BE5D10321262006F0BBFFE0E741
:104ABC00FE2B03D1064B9B689B03DAD5281DFFF711
:104ACC0078FF00E0012085F8C40404B070BD00BF7D
:104ADC00008000421248134A134BC0F89424134A26
:104AEC0003600023C0F8A0240122C0F8843480F8AD
:104AFC00AD242922C0F8883480F89C3480F89D3489
:104B0C0080F8B23480F8C03480F8C434FF2380F8C5
:104B1C00AF240749074A80F8C53407F0BDBA00BF77
:104B2C00642400208805002034050020E8050020BE
:104B3C00B1290000A81600207F28A2EB010204D89E
:104B4C00002A3FD00870481C7047B0F5006F0DD29A
:104B5C00012A39D9830900F03F000A4663F03F036C
:104B6C0060F07F0002F8023B48702BE0B0F5803F0C
:104B7C0011D2022A28D9030B63F01F030B70C0F368
:104B8C00851300F03F0063F07F034B7060F07F03F0
:104B9C00C81C8B707047032A16D9830C63F00F0363
:104BAC000B70C0F3053363F07F034B70C0F38513B8
:104BBC0063F07F038B7000F03F03081D63F07F03ED
:104BCC00CB7070471046704700207047884230B554
:104BDC0036D203781C0602D41360441C33E003F075
:104BEC00E004C02C03D103F01F0302240EE003F0F9
:104BFC00F004E02C03D103F00F03032406E003F0D0
:104C0C00F804F02C1CD103F0070304240444A14243
:104C1C0016D3013010F8011B01F0C005802D0FD107
:104C2C0001F03F01A04241EA8313F3D1A3F18000CC
:104C3C000649884204D8A3F55841B1F5006F01D25A
:104C4C00002400E01360204630BD00BF7FFF100041
:104C5C002DE9F74F0CAE054614469A46019196E89D
:104C6C00C00109B90020C2E0BAF1000FFAD0036804
:104C7C000021DB6898470028F4D0019B03F1FF3931
:104C8C0094F8C231EE2B5FFA89F93FD12B6822469A
:104C9C0001212846DB6898470028E3D008225549B3
:104CAC00204607F025FF0028DCD1236D9945D9D883
:104CBC004FEAA90109F00309023107B13960B8F1D3
:104CCC00000F01D088F800902B6822462846DB683C
:104CDC0098470028C6D04FEAC91000F12003E258CB
:104CEC0000F12803E35801339B1A0AB9012BB9D000
:104CFC00CAF8002006B1336010223F49204407F067
:104D0C00F7FE00280CBF0320042070E0B9F1030F5C
:104D1C001FD804EB091393F8BE21520619D193F84E
:104D2C00C231B3B10F2B14D009F11C0304EB0314E3
:104D3C00D4F80630CAF8003016B1D4F80A30336013
:104D4C000FB100233B60B8F1000F18D088F8009029
:104D5C0015E02146002391F8BE01DAB2400681D15C
:104D6C0091F8C20100283FF47DAF9145FFF47AAF72
:104D7C000F2806D001331031042BECD172E701203F
:104D8C0035E004EB03130132D3F8C6915FFA82FBD2
:104D9C002B68224649462846DB68984700283FF492
:104DAC0061AF019B5B450FD094F8D221D4F8D6317A
:104DBC00052A7FF457AF0BF101025FFA82FB002B3F
:104DCC003FF450AF9944E3E7D4F8C6314B44CAF8EA
:104DDC00003016B1D4F8CA3133600FB1C7F8009067
:104DEC00B8F1000F02D0002388F80030022003B085
:104DFC00BDE8F08FBD110020B81C0060B1F5807FBC
:104E0C0030B506D810294FF0200414D9202914D914
:104E1C0000E03F24802912D9B1F5FC7F11D9B1F5FE
:104E2C007C7F10D9B1F5FC6F0FD9B1F57C6F94BFB5
:104E3C008023FF230AE0022308E0042306E0082372
:104E4C0004E0102302E0202300E0402313FB04F3D2
:104E5C00B2FBF3F5B5F5806F0BD203FB1523B2FB58
:104E6C00F4F1B3FBF4F304FB1122DBB20132D2B246
:104E7C0003E03F22FE2340F2FF350370AB08857040
:104E8C0023F03F031A43427030BDF8B50378044653
:104E9C00DA071DD5406804F11006E1680368324654
:104EAC001B6A9847054608B9002512E023789B0732
:104EBC0004D4237823F0010323700AE0201D32462A
:104ECC0083C8036839441B6A98470028F1D1EBE783
:104EDC0001252846F8BD436870B504460E461546B4
:104EEC000BB9002070BDC3688B4213D0FFF7CDFF08
:104EFC000028F6D06B0703D50023E660237009E089
:104F0C00606804F1100231460368DB68984700289A
:104F1C00F2D1E6E7237805F0030520461D4300F89F
:104F2C00105B70BD7E2830B506D8A0F16103192B3B
:104F3C008CBF0023202320E035240023204DE21ACF
:104F4C001F49012A08D903EB520235F8221081427D
:104F5C008CBF14461346F2E79AB231F822309842CD
:104F6C0015D301EB8202C31AD1788B420FDA92F976
:104F7C000220012A03D103F00103C01A05E00AB193
:104F8C0092B201E04EF2A032104480B230BD4B24FC
:104F9C0000230C4DE21A0B49012A08D903EB5202EB
:104FAC0035F8221081428CBF14461346F2E79BB2AF
:104FBC0031F82320824204BF01EB8303588830BDB3
:104FCC00640D0020380C002013B50446808910B104
:104FDC000023A3811AE06368A1688B4216D201AA50
:104FEC001846FFF7F3FD78B160600198B0F5803F8B
:104FFC0021BFC0F30903800AA3F51053A0F521507B
:10500C0028BFA38180B201E04FF6FF7002B010BD43
:10501C0083680146C3F3080363B100200A69D054C6
:10502C000133B3F5007FF9D1C8680A6903680968D0
:10503C001B6A184701207047826803460069C2F357
:10504C00080210B48154586801EB700159609968DA
:10505C000131996040F2FF118A420AD1D86819686F
:10506C000268146A4A1C1A601A6923465DF8044BDC
:10507C00184701205DF8044B704738B50C46C9B28F
:10508C000546FFF7D9FF28B1210A2846BDE838406C
:10509C00FFF7D2BF38BDF8B500240746846080E81E
:1050AC001200A0B2FFF73EFFA04206460AD001460E
:1050BC003846FFF7E2FFA0B3651CB5F5803F0BD275
:1050CC002C46EEE7651CB5F5803F0AD2A8B2FFF777
:1050DC0029FF854205D122E03846BDE8F840FFF7AC
:1050EC0097BF2C1BB4F5007F0CD34FF6FF713846DD
:1050FC00FFF7C3FFA8B1A1B23846FFF7BEFF0028E7
:10510C00DBD10EE03446A54201D82546D5E7A1B245
:10511C003846FFF7B2FF01340028F4D101E0013525
:10512C00D1E70020F8BD00002DE9F04F1F460346E3
:10513C0087B00D46D96014461A610B680190084679
:10514C009B699847B0F5801F814607D2002F00F06D
:10515C00138192493846FDF70DF809E10026012329
:10516C0001365B00F6B2202E05D09945F8D81C2EDE
:10517C0001D8082303E0A6F10B08C8F347031A2E45
:10518C000293029A4FF0000186BF013601234FF4BF
:10519C000053204688BF76104FF0010B4FF00008EB
:1051AC0088BFB3400093009B5E009B00C3EB090AD1
:1051BC000493029B2AFA03F303FA02FA4FF40072E7
:1051CC00039305F095F9072384F8BFB184F8C0B1B7
:1051DC00B24484F8C231FE2384F8C181224684F89B
:1051EC00C331FF23C4F8C661414684F8C431284654
:1051FC0084F8C5314AF65523C4F8CAA1A4F8FE3187
:10520C002B681B6A9847002800F0B1804FF400729D
:10521C004146204605F06CF9EB2304F2FD12F42113
:10522C0023707623266463709023C4F84480A370A3
:10523C004523C4F848A0E3705823C4F84C8023716C
:10524C004623A66563714123C4F86490A37154236B
:10525C00A4F86A80E371202384F86EB02372637221
:10526C00A372009B84F8708023656365039BE365E0
:10527C00042323664FF48073A4F86830092384F860
:10528C006C309DF8083084F86D30802384F86F30D2
:10529C0004F1770303F8011F9342FBD14FF000098F
:1052AC004AF65523C846A4F8FE31A9F16A03012B2E
:1052BC0006D9B9F1700F1CBF14F8093003EB78084C
:1052CC0009F10109B9F5007FEFD12B68224631466F
:1052DC0028461B6A9847002849D02B68224606F1BD
:1052EC000C0128461B6A9847002840D04A460021EA
:1052FC00204606F1010A05F0FBF84AF6552306F1A3
:10530C00090904F2FF1BA4F8FE31631E0593059BEB
:10531C0013F8012F9B4502EB7808F9D12B68224634
:10532C00514628461B6A984708B32B6822460AF157
:10533C000C0128461B6A9847C8B10AF1010ACA45F4
:10534C00E5D106F10B0A4FF400720021204605F05E
:10535C00CFF8059B13F8012F9B4502EB7808F9D188
:10536C002B682246494628461B6A984738B91FB114
:10537C000B493846FCF7FEFE4FF0000AF0E02B68B4
:10538C00224609F10C0128461B6A98470028EED0EA
:10539C0009F10103534505D09946DAE7C6110020FF
:1053AC001F120020231F04F5FE7243F8048F9A424B
:1053BC00FBD12B682246514628461B6A9847002889
:1053CC00D5D02B68224609F10D0128461B6A984757
:1053DC000028CCD01FB164493846FCF7CBFE009BAB
:1053EC004FF40072002120461E44039B4FEA8309B0
:1053FC0005F07EF8F82309F2072904F11302237053
:10540C00FF214FEA592A234603F8011F9A42FBD188
:10541C004FEA99394FF00008B8FBF9F309FB1383F5
:10542C0023B91FB151493846FCF7A4FE2B6822461C
:10543C0006EB080128461B6A9847002897D0B8F15C
:10544C00000F05D14FF400724146204605F050F88C
:10545C0008F10108C245DFD11FB145493846FCF7B8
:10546C0089FE029B4FF0010808FA03F8039B03F135
:10547C00070A4FEADA0A0AF2FF1B4FEA5B2BD84500
:10548C00FFF475AF4FF40072002120464FF0000975
:10549C0005F02EF8072323702B6822460499284622
:1054AC001B6A4944984700283FF461AFB9F1000FDB
:1054BC0001D184F8009009F10109CB45ECD11FB161
:1054CC002C493846FCF756FE009B0198334403EBFD
:1054DC0008094946FFF7DFFD00283FF448AF019B60
:1054EC009B68B3EB482F3FF642AF1FB122493846B9
:1054FC00FCF740FE4FF4007200212046002604F019
:10550C00F7FF81220323C14484F820200222237058
:10551C0062638222C4F838A084F84020019A526851
:10552C006365019B62649B68E665A3652B682246F4
:10553C0006EB090128461B6A9847824600283FF46F
:10554C0016AF2EB94FF400723146204604F0D0FF4E
:10555C000136B045EAD11FB108493846FCF70AFEBE
:10556C00504607B0BDE8F08FDC110020E911002097
:10557C005B120020EB1100200212002011120020FF
:10558C002DE9F04115460E4601F11E08AB8936F89F
:10559C00024F43B96A68AB689A4204D1B4FA84F0FA
:1055AC004009BDE8F0812846FFF70EFDFFF7BAFC75
:1055BC0007462046FFF7B6FC874204D14645E5D1A5
:1055CC000120BDE8F0810020BDE8F0812DE9F84F05
:1055DC0090F8313082468946002B47D002F1FF38D3
:1055EC000D460227002488449AF83030BB4237D34A
:1055FC0000223946504600F072F8B8B30378C12B3C
:10560C0034D1064600F11E0B234636F8024F73B117
:10561C0004F5105292B2B2F5806F27D29B02164855
:10562C00C4F309041840044304F580300CE004F57D
:10563C0020539BB2B3F5006F02D38CB1204603E02C
:10564C00B3F5806F07D311E042462946FFF774FA91
:10565C0030B105460024B345D6D10137FFB2C3E7BC
:10566C000023C9EB05002B70BDE8F88F002089F8EA
:10567C000000BDE8F88F00BF00FC0F0070B50B6890
:10568C0000240D464FF6FF764B608C810C61AB8984
:10569C001BB96A68AB689A4219D02846FFF794FC8C
:1056AC00B04212D0FFF73EFCE30343EA540454FA31
:1056BC0080F4C4F34E0343EAC433041214FA83F4A3
:1056CC002B690133A4B22B61E1E7002070BD28697E
:1056DC00AC820138FE288CBF0020012070BDF0B5D3
:1056EC0000F1240385B005460F4601AC164693E83D
:1056FC00070084E807007A012146286A00F0DCFCE8
:10570C00012805D132462146286A00F086FC00E0CB
:10571C00002005B0F0BD10B5044600F05BFF00237F
:10572C0084F8313084F8333010BD38B50D4614464A
:10573C0000F124010022006A00F06FFC20B14389C3
:10574C002B8003890120238038BD38B50D461446C3
:10575C0000F124010022006A00F05FFC20B1C38933
:10576C002B8083890120238038BD38B50D4690F8F5
:10577C003110044651B9382204F0BAFE40230120FE
:10578C00256284F8313084F8330038BD002038BDF0
:10579C00F0B40C784D1C202C01D12946F9E71A4F96
:1057AC00116091600D460E4615F8014BDCB12F2CA3
:1057BC0013D01F2C24D9A4F12201C9B21D2903D85E
:1057CC0027FA01F1C9071BD404F0BF013C2917D0FB
:1057DC005C2C0DD114E02F2C05D10E4611F8014B89
:1057EC00202CF8D1F9E71E601146F0BCFFF746BF3C
:1057FC002E2C01D12946D5E7202CFBD09560F9E75A
:10580C000020F0BC704700BF010100312DE9F84FBA
:10581C0090F8333004460E461546DF0777D5580608
:10582C0003D494F8313019070CD5D4E90001D4E92C
:10583C00042310EB050841F100094B4508BF424514
:10584C0000D2151AA94604F1180AB9F1000F43D079
:10585C00206AD4E90023D0F8381401EA0208C8F30E
:10586C00080BB8F1000F1ED1134307D194F8313057
:10587C005A064CBFD0F83434E36905E094F8333061
:10588C005B0603D5A3690133A3610CE05246A16901
:10589C0000F0DEFB00283ADB05D194F8313013F030
:1058AC00500F19D133E0276A4FEA5822A16997F8B3
:1058BC0045E40239D7F82C0401FA0EF1014401EB4E
:1058CC000208BBF1000F4FD1B9F5007F4CD3D7F8CC
:1058DC001C12884504D147E0C9EB0500BDE8F88FE0
:1058EC00B9F5806F2AD301234FEA592B03FA0EF333
:1058FC009A1A934528BF9346884512D80BEB080398
:10590C0099420ED207F50470FFF7BFFA48B994F824
:10591C0032304FF0FF3043F0020384F83230BDE8F0
:10592C00F88FD7F814023246414603681F695B466C
:10593C00B8470028EBD04FEA4B270AE0D7F81402FF
:10594C00324641460368DB6898470028DFD04FF4A5
:10595C0000773E44C7EB0909D4E90023D21943F17F
:10596C000003C4E9002370E70022414607F50470E8
:10597C00FFF7B1FA0028CAD0CBF5007700EB0B018A
:10598C0030464F4528BF4F463A4604F0D3FDE0E77A
:10599C00F7B501220DF1070104468569D0E90067CE
:1059AC00FFF734FF0128A5610CBF9DF807004FF0ED
:1059BC00FF30C4E9006703B0F0BD2DE9F74F1F4677
:1059CC0090F831B08369044616460193BBF1000F81
:1059DC0052D0D0E90089B94508BF904550D056EA5D
:1059EC00070302D10023836143E01BF0080F05D0AD
:1059FC00D0E90401B94208BF90423DD3236A16F1A5
:105A0C00FF3093F845A447F1FF3100930AF1090ADE
:105A1C005FFA8AFA524606F045FB94F833200546A5
:105A2C00530603D5E3691D44A56122E018F1FF304C
:105A3C00524649F1FF3106F035FB854202D358EA54
:105A4C0009030AD11BF0400F16BF009BE369D3F882
:105A5C003434A36104F1180809E02D1AFAE7424620
:105A6C00A169206A013D00F0F3FA002804DD002D45
:105A7C00F5D1C4E9006703E0019B0020A36100E0BD
:105A8C00012003B0BDE8F08F2DE9F04F9A4690F855
:105A9C0031308DB004460E46154673BB91F831304B
:105AAC0013F0500F29D00AF00303012B00F0828170
:105ABC00022B40F07A8103230AF0080949EA030912
:105ACC000DB32B694FF00F08002230460E33B3FB99
:105ADC00F8F808F1020800235FFA88F8FFF76DFF69
:105AEC004FF0000B5F46202204A93046FFF78EFED4
:105AFC00002800F0BC80202808D0002084F8310059
:105B0C0084F8330062E14FF00308E9E79DF81020B8
:105B1C00110611D427B93368203B0193B369009364
:105B2C0047453CBF0137FFB212B14FF0000BDAE72B
:105B3C00002D40F09C80E0E7BBF1000F27D14745DA
:105B4C0038BF0027852ACED13822594620464FF03F
:105B5C00010B04F0CDFC9DF811309DF8142084F855
:105B6C00303002F03703D20658BF43F0080384F8F4
:105B7C003130336A2362B36963623368203BA362BA
:105B8C0096F83330C3F3801384F82C30ABE7C02A7B
:105B9C002BD19DF8113084F83390980744BF49F00D
:105BAC00400384F83330DDE90623C4E90423099B60
:105BBC00E361DDE90A23C4E902231DB91AF4006F7D
:105BCC009BD126E02B682A696B604FF00003AB81F8
:105BDC009DF813309A42A8D1BDF81420AB8AD11A83
:105BEC00D1F1000B4BEB010B7DE7C12A9DD12A466D
:105BFC0004A92046FFF7C4FC08B9834673E7AA89B9
:105C0C00002A7FF470AF6968AA6891427FF46BAF89
:105C1C00D4E71AF4884F03D194F833309A0705D59A
:105C2C0094F8313013F0110F7FF467AF1AF4806FD2
:105C3C0010D094F833309B077FF55FAF0022002320
:105C4C002046FFF7BAFE00283FF457AF204600F07D
:105C5C00B1FE08E01AF4804F00F0AE802046D4E983
:105C6C000423FFF7AAFE00283FF447AFA4E01AF480
:105C7C00007F3FF442AF19F0020F3FF43EAF002D0E
:105C8C003FF43BAF47451CD2202204A93046FFF716
:105C9C00BDFD50B93046D6F818A000F0BAFC00286B
:105CAC003FF42BAFC6F818A0ECE720287FF425AF03
:105CBC0027B93368203B0193B36900930137FFB2D6
:105CCC00E0E738220021204696F8337004F010FCEF
:105CDC00336AC7F3801708F1FF3A2362082384F86C
:105CEC002C705FFA8AFA84F831300027009B6362CB
:105CFC00019BA3622B68AF816B605FFA87FBC34586
:105D0C004FD2012259462046FFF7E9FC06460028EF
:105D1C003FF4F3AE90F90020002AFFF6EEAE2022FD
:105D2C00002104F0E5FBBBF1000F1ED1852333707D
:105D3C00284B84F830A086F801A01B687BB10DF1CC
:105D4C000B020DF10E0103A89847BDF80C307381BE
:105D5C00BDF80E3033819DF80B3033751FE045F2E2
:105D6C0021437381F381738219E0BBF1010F0CD1D4
:105D7C0069F07F03C02286F801B0327084F83330AA
:105D8C002B69F370AB8AB38009E0C12306F11E0BBB
:105D9C003370AA8992B96968AA6891420ED1013709
:105DAC00ABE7204600F016FC10E0002B7FF4A5AE0C
:105DBC00012381E602237FE6012007E02846FFF756
:105DCC0003F926F8020F5E45E3D1E8E70DB0BDE814
:105DDC00F08F00BF543D0020F0B51F4697B0002354
:105DEC0005460C4601928DF851308DF852308DF8E5
:105DFC005330ADF8143090F831300BB1002047E03F
:105E0C0091F8313013F0500FF8D013782F2B12D1AA
:105E1C00019B1A782F2A02D101330193F8E7216AEA
:105E2C001AB92846FFF7A1FC32E008A8FFF79DFC41
:105E3C000028E3D008AC01AB02AA01992846FFF771
:105E4C00A7FC0028DAD0019B1B78DBB1002302AA47
:105E5C0021462846FFF718FE0028CFD008AA2B466B
:105E6C0005F1300E14461868083353F8041C164616
:105E7C00734503C63246F6D1186830602846FFF7E2
:105E8C004AFCD8E73B4602AA21462846FFF7FCFD10
:105E9C0017B0F0BD19B101F58961FFF79DBF084638
:105EAC00704730B4134690F8312072B991F83150E4
:105EBC0015F0500F09D0D1E90045002504F01F045E
:105ECC002C4302D130BCFFF7DFBD002030BC704743
:105EDC002DE9F84F80469246894609B18C1E01E0A7
:105EEC00D0F82044D8F830349C4228BF0024012339
:105EFC0004F00707C4F3C80B2646254603FA07F738
:105F0C00FFB2D8F82C140022404601EB1531FEF7F5
:105F1C00E2FF70B33B465946475C1F4205F1010551
:105F2C000DD1AA1B52450BD1B9F1000F04D1BAF116
:105F3C00010F08BFC8F82064B01CBDE8F88F2E46CE
:105F4C00AC4215D0D8F83024954204D25B0013F043
:105F5C00FF03E2D103E000264FF400713546013116
:105F6C0001234FF0000BB1F5007F1F46D4D3C8E7D7
:105F7C000120BDE8F88F2DE9F84317468A1E064626
:105F8C00D0F83004D1199846814240D8D6F8203444
:105F9C00B8F1000F09D09A420BD8994209D9814225
:105FAC0028BF0021C6F8201403E09A4238BFC6F877
:105FBC00202402F007050123D6F82C14C2F3C804E0
:105FCC0003FA05F501EB1231EDB20122304601F175
:105FDC000109FEF780FFD0B103192A4600F50070C5
:105FEC001978114214BF0124002444450FD05140AC
:105FFC00013F19700ED0520012F0FF02F0D10133A4
:10600C0014460122494698421546E9D1DDE70020A5
:10601C00BDE8F8830120BDE8F88338B50D46D0F80B
:10602C00381400F504706B6819402B689C1E90F8AE
:10603C00353204FA03F303EB5123D0F81C12194444
:10604C00FEF749FF18B16B68C3F30803184438BD59
:10605C0038B5D0F830340C46154601338B4202D299
:10606C004FF0FF3038BDD0F82414002200F5047036
:10607C0001EBD411FEF72FFF0028F1D0A400C4F3DC
:10608C00080400592860013018BF012038BD73B5D1
:10609C00064602AD002445F8041D2A4601993046F7
:1060AC00FFF7D6FF002804DB04F10104F5D12046EC
:1060BC0000E0002002B070BD70B50D46D0F8384439
:1060CC00496806460C40A3180A446A6090F8454497
:1060DC000934E4B223FA04F474B12B7A23B12B689B
:1060EC0001332B60013CF7E72A4629683046FFF75D
:1060FC00AFFF0128F6D070BD012070BD012938B565
:10610C000C46154601D8002038BDD0F83034013388
:10611C009942F8D8D0F82414012200F5047001EB50
:10612C00D411FEF7D8FE0028EDD0A400C4F3080467
:10613C000551012038BD2DE9F34107460C460E46AA
:10614C0001AA21463846FFF783FFB0F1000801DAB7
:10615C0000251BE0002221463846FFF7CFFF0546FD
:10616C000028F5D0621CB8F1000F02D0019B9A42B6
:10617C0008D00023921B31463846FFF7FCFE00285E
:10618C00E6D0019E019CB8F1000FD9D1284602B08F
:10619C00BDE8F0812DE9F04100240646D0F82C141E
:1061AC0000F5047725460022384601F10108FEF778
:1061BC0092FE00B300F1FF3E05F5805C1EF8011F56
:1061CC00FF2901D108340AE049B108220123194200
:1061DC004FEA430318BF0134013ADBB2F7D108355B
:1061EC00D6F83004854202D3001BBDE8F08165452A
:1061FC004146E3D1D7E7BDE8F0810000F0B54FF0A0
:10620C00FF330446002587B00846E3601146C4F806
:10621C001C3284F8445405ABC4F8400404F50872ED
:10622C00606004F504772570C4F8140284F81052E9
:10623C00029501950095FEF70BFD10F0FB0F01D1B7
:10624C0000203CE0059E2A4638463146FEF743FEC8
:10625C0005460028F4D01B490522033006F0A6FFA2
:10626C0001460028ECD195F86C30092BE8D12B6D48
:10627C003344C4F824346B6DC4F82834AB6D1E441D
:10628C00C4F82C64EB6DC4F830342B6EC4F8343481
:10629C0095F86D300125C4F82004204684F8453467
:1062AC0009332A4605FA03F3C4F83C34013BC4F81D
:1062BC003834FFF70DFE4023284684F8443407B0E9
:1062CC00F0BD00BF2F12002010B50446D0F83414D6
:1062DC00FFF7DDFE94F845340933DBB2984010BD6E
:1062EC0070B500F589648EB000230A4668462146D5
:1062FC008DF831308DF832308DF83330FFF76CFD7E
:10630C000546A8B19DF8313013F050030FD06A4602
:10631C0023460CAE1446083303CCB44243F8080CA5
:10632C0043F8041C2246F5D12068186000E01D4695
:10633C0028460EB070BD10B500230478CA03012B9B
:10634C0042EA5101C25C12FA81F189B204D1852C66
:10635C0014BF0122032200E0012213441F2BEDD9AC
:10636C00084610BD10B50446FEF78FFD58B104F574
:10637C000470FEF78AFD30B1D4F840040368BDE820
:10638C001040DB691847002010BDF8B50446006AC0
:10639C00A16901B101310122FFF79AFD01280546DF
:1063AC0001D8002638E001230146206A1A46FFF77F
:1063BC00E2FD06460028F4D0A26994F8333022B9E5
:1063CC0043F0400384F8333025E0590613D50132ED
:1063DC00954220D023F04003E16984F83330A3695F
:1063EC00994208D24F1C206A3A46FFF787FE0028D4
:1063FC00D7D03946F3E74FF0FF322946206AFFF732
:10640C007DFE0028CDD0A16929B12A46206AFFF76C
:10641C0075FE0028C5D0A5613046F8BD70B590F862
:10642C00333004469A0701D4002070BDC5690DB9FC
:10643C00002528E05B0614D5066AD0E9020196F81F
:10644C00452410F1FF3002F1090241F1FF31D2B2C3
:10645C0005F028FE0023421C29463046FFF78BFD31
:10646C0003E02946006AFFF766FE0028E0D1DBE76F
:10647C0001222046FFF733F901350028D4D00378E8
:10648C0003F07F030370E9B294F830308B42EFD203
:10649C000023206A84F8313084F83330FFF762FF30
:1064AC0070BD10B590F8313088B00446D90601D4CF
:1064BC0000201DE000220023FFF77FFA202269460E
:1064CC002046FFF7A3F938B12028F1D19DF8003010
:1064DC001A06EDD4002BF1D10823204684F8313074
:1064EC0094F8333043F0020384F83330FFF796FF0F
:1064FC0008B010BD2DE9F34100260546DFF8D08029
:10650C003746F1B295F830308B424AD300222846F8
:10651C00FFF7E5F8044600284FD00378C02B1DD0B8
:10652C00C12B37D0852B48D195F8313003F0370388
:10653C008380D8F8003033B30DF103020DF106015E
:10654C0001A898479DF80330BDF806206375BDF887
:10655C000430A281E3812282638214E095F8333007
:10656C0013F0400F437814BF43F0020323F00203EF
:10657C004370D5E90423C0E90223EB694361D5E9F3
:10658C000223C0E906232A6A92F8103243F0010371
:10659C0082F8103239462046FFF7CDFE0136074609
:1065AC00AFE7012205F12401286AFFF736FD20B17F
:1065BC004780286AFFF7D6FE30B995F832300020B4
:1065CC0043F0010385F8323002B0BDE8F08100BF22
:1065DC00543D002010B590F8313004460BB9012021
:1065EC0010BD90F833301A0607D503F07F0380F8FE
:1065FC003330BDE81040FFF77DBF006AFFF7B2FEF5
:10660C000028ECD194F8323043F0010384F8323096
:10661C0010BD2DE9F04190F831300446580603D5F1
:10662C00206AFFF751FE00E0A068236AD3F83C34DF
:10663C001844B0F1806F58D22046FFF7A6FE002810
:10664C0053D0256A95F81032D90705D505F5047095
:10665C00FEF71BFC002848D04FF0FF33002605F551
:10666C0008754FF4007245F8043C314605F8106C7F
:10667C00284603F03DFF226AA3694FF0010892F807
:10668C004514023BD2F82C748B401F44236A93F8B8
:10669C00452408FA02F2B24209D9D3F840042A463A
:1066AC00B91903681B6A9847F8B10136EEE794F8FC
:1066BC003120520614D494F8332062F07F02D4E9CE
:1066CC00020184F83320D3F83C240023801859416C
:1066DC00C4E90201D4E9040112184B41C4E90423B2
:1066EC002046BDE8F041FFF775BF0020BDE8F08102
:1066FC0010B591F83130044613F0500F1AD040F613
:10670C000223FFF7C1F9A8B11023204684F83130D9
:10671C00FFF77FFF70B1A36920460022E3610023DD
:10672C00FFF74BF9C123204684F83330BDE8104005
:10673C00FFF750BF002010BDF0B51F4697B00023E7
:10674C0005460C460192ADF814308DF851308DF899
:10675C0052308DF8533090F83130002B49D191F8EC
:10676C00313013F0500F44D013782F2B0DD1019BE7
:10677C001A782F2A02D101330193F8E7216A08A86D
:10678C00FEF7F3FF002834D008AC01AB02AA019944
:10679C002846FEF7FDFF60B3019B1B781BB300235B
:1067AC0002AA21462846FFF76FF998B108AA2B4692
:1067BC0005F1300E14461868083353F8041C1646BD
:1067CC00734503C63246F6D1186830602846FEF78A
:1067DC00A2FFDAE76FB102AA21462846FFF788FF2D
:1067EC000028E3D105E002AA21462846FFF780FFE6
:1067FC0000E0002017B0F0BDF0B500239DB00446BA
:10680C008DF831308DF832308DF833308DF86930A9
:10681C008DF86A308DF86B3090F8313013F0180F1A
:10682C0001D100203AE0006A0B6A9842F9D140F697
:10683C0001236846FFF7D0FA0028F2D00EAA2346AF
:10684C0004F1300716461868083353F8041C154633
:10685C00BB4203C52A46F6D1186809AA04F12403E1
:10686C00286007CA83E807009DF83030204684F87A
:10687C00303094F8333063F07F0384F83330FFF713
:10688C00A9FE0028CDD000233046159302238DF8A5
:10689C006B3008238DF86930FFF7C0FD1DB0F0BDDB
:1068AC002DE9F84F1C4690F83130064688461B07F8
:1068BC009DF828B09DF82CA09DF830509DF8349090
:1068CC0039D5A2F2BC7297B27F2F34D8631E0B2B32
:1068DC0031D80BF1FF331E2B2DD8BAF1170F2AD854
:1068EC003B2D28D8B9F13B0F25D8FFF773FE10B319
:1068FC004FEA690319F0010F4BEA441443EA4515BA
:10690C0008BF4FF0000944EA47244FF0000745EA5E
:10691C00CA2518BF4FF06409A4B2BB46ADB208F04B
:10692C00010AF9B296F830308B4234D3002230464B
:10693C00FEF7D5FE10B90020BDE8F88F0378852B43
:10694C0004D0F8D3C03B012B1FD9F4E796F83130B3
:10695C00326A03F03703838092F8103243F001035C
:10696C0082F81032BAF1000F01D00582448218F07F
:10697C00020F1EBF80F814900581448118F0040F9B
:10698C001EBF80F815908581C48159460137FFF7E9
:10699C00D2FC8346C5E7012206F12401306AFFF7D9
:1069AC003CFB0028C7D0A0F802B0306AFFF7DAFC35
:1069BC00BDE8F88F73B590F8333004469A0701D4CC
:1069CC00002054E0C569002D40D003F040038669D7
:1069DC0003F0FF01F3B1236AD0E9020193F84524D7
:1069EC0010F1FF3002F1090241F1FF31D2B205F092
:1069FC0059FB421C2EB1013D731CAD1B01932A4463
:106A0C0001E00195E6611AB300230199206AFFF7B2
:106A1C00B2FA19E08EB102AA006A42F8041D31469E
:106A2C00FFF716FB0028CBDB09D04FF0FF32A16932
:106A3C00206AFFF763FB10B9C2E70195C6610199A3
:106A4C0031B1206AFFF777FB10B9B9E701200EE0EE
:106A5C00D4E900232046C4E90223C4E9042394F8B2
:106A6C00333063F07F0384F83330FFF7B3FD02B0AB
:106A7C0070BD00002DE9F74F90F83330894604467D
:106A8C009246990740F1BB801A0706D404F118030B
:106A9C00D0464FF0010B009362E0D0E90423FEF7DF
:106AAC008CFF0028F2D1AAE0206A2668D0F838348E
:106ABC001E40C6F30805002E56D0D4F820E0760A06
:106ACC00A1699EF845240239DEF82C349140194412
:106ADC003144002D7CD1B8F5007F80F09A80D4E948
:106AEC000423D4E900679F4208BF964234BF0122B9
:106AFC0005220EF50470FEF7EEF900287FD0C5F5DF
:106B0C00007628444946464528BF46463544324619
:106B1C0003F010FDB5F5007F06D1206A00F5047076
:106B2C00FEF7B3F900286AD0B144C6EB0808D4E9E3
:106B3C000001821941F1000310461946C4E90023F3
:106B4C00D4E904238B4208BF824209D294F8333033
:106B5C00024663F07F0384F833300B46C4E9042308
:106B6C00B8F1000FA0D135E0A76937B394F83330F2
:106B7C005B061AD590F84524E36909320193D2B229
:106B8C00D4E9020110F1FF3041F1FF3105F08AFA2E
:106B9C00019B1844874205D32046FFF7F6FB0028DB
:106BAC008BD12CE00137A76187E7009A3946FFF7B4
:106BBC004FFA002823DB80D1EEE7E36933B9204696
:106BCC00FFF7E3FBD8B1A369E36176E7A36174E750
:106BDC0001228EE7D4E90001D4E902238B4208BFDD
:106BEC00824202D2C4E9020102E0254B1B6873B158
:106BFC0094F8333063F07F0384F8333007E094F873
:106C0C003230002043F0010384F8323035E0504636
:106C1C0033E0B8F5806FDEF81C72DEF8140214D382
:106C2C000BFA02F34FEA582C9E1B6346B44528BF5F
:106C3C003346B9424FEA432602D8CA18974215D3B5
