:1000000000000320D1010000ED930000B99300002F
:10001000B9930000B9930000B9930000B9930000B0
:10002000B9930000B9930000B9930000ED9300006C
:10003000ED930000B99300005DA1000061A10000F4
:10004000ED930000ED930000ED930000ED930000B0
:10005000ED930000ED930000ED930000ED930000A0
:10006000ED930000ED930000ED930000ED93000090
:10007000ED930000ED930000ED930000ED93000080
:10008000ED930000ED930000ED930000ED93000070
:10009000ED930000ED930000ED930000ED93000060
:1000A000A12B0000AD2B0000ED930000ED930000AC
:1000B000ED930000ED930000ED930000ED93000040
:1000C000ED930000ED930000ED930000ED93000030
:1000D000ED930000ED930000ED930000ED93000020
:1000E000ED930000ED930000ED930000ED93000010
:1000F000ED930000ED930000ED930000ED93000000
:10010000ED930000ED930000ED930000ED930000EF
:10011000ED930000A1980000ED930000ED93000026
:10012000ED930000ED930000ED930000ED930000CF
:10013000ED930000ED930000ED930000ED930000BF
:10014000ED930000ED930000ED930000ED930000AF
:10015000ED930000ED930000ED930000ED9300009F
:10016000ED930000ED930000B92B0000ED9300002B
:10017000ED930000ED930000ED930000ED9300007F
:10018000ED930000ED930000ED930000ED9300006F
:10019000ED930000ED930000ED930000ED9300005F
:1001A000ED930000ED930000ED930000ED9300004F
:1001B000ED930000ED930000ED930000ED9300003F
:1001C000ED930000ED930000ED930000ED9300002F
:1001D000594B4CF2205210B51A804DF628121A8055
:1001E00000BF00BF09F006F9544B55494FF030628B
:1001F0001A60544A9A60544ADA60544B4FF47002C1
:100200001A60534B534A1A60534B1A78100742BF77
:100210001A7842F008021A70504BAA221A70504AFB
:10022000504B8B4204D252F8040F43F8040BF8E70A
:100230004D4B4E4A0021934202D243F8041BFAE789
:100240004B4A4C48002350F8231042F82310013346
:10025000742BF8D1484B494A802103F8011B934283
:10026000FBD1474B424A1A60464B8A221A70A3F5CB
:10027000805324225A70A0221A709A799107FCD5D3
:100280009A79D206FCD4404A937903F00C03082BE8
:100290003D4BF9D101221A7148225A719A7994067C
:1002A000FCD539498A79384B5006FBD5374A38494D
:1002B00011600221516020221A709A7902F00C021A
:1002C0000C2AFAD1334B344A1A60344A344C13683E
:1002D00013F4807302BF23604FF4A8531360314BB3
:1002E000314A1A6000225A60072243F8042C2F4A30
:1002F000C3F80C2D62B609F043F92368DA0705D577
:100300002B4809F0A5F82B4B2B4A1A602B4B1B7876
:100310005B0609D5274C284B22689A4204D1244811
:1003200009F096F80023236009F06AF80AF0A6FFA6
:1003300009F0F9FFFEE700BF0E20054030800440C1
:10034000A81DFF1F823F04000100002B88ED00E084
:10035000002008E00300008502D0074000E00740CD
:1003600050350100300FFF1FA81DFF1F60A801209E
:10037000000AFF1F0000000000E400E064E400E069
:1003800008ED00E000500640004006404480044074
:100390000000030104800440C010050010D0034099
:1003A00014D0034014E000E0FF760100000020209C
:1003B000905901621CE00340A5C3945A00F0074025
:1003C000FFFFFFFFFFFFFFFFFFFFFFFFFFFFFFFF3D
:1003D000FFFFFFFFFFFFFFFFFFFFFFFFFFFFFFFF2D
:1003E000FFFFFFFFFFFFFFFFFFFFFFFFFFFFFFFF1D
:1003F000FFFFFFFFFFFFFFFFFFFFFFFFFFFFFFFF0D
:10040000FFFFFFFFFFFFFFFFFFFFFFFFDEF9FFFF23
:1004100010B5054C237833B9044B13B10448AFF33E
:1004200000800123237010BDA81DFF1F00000000E5
:100430004C350100084B10B51BB108490848AFF313
:1004400000800848036803B910BD074B002BFBD0A0
:10045000BDE81040184700BF00000000AC1DFF1FA2
:100460004C350100A81DFF1F0000000010B5044618
:1004700009F032FE204610BD074B08491A6822F0E9
:1004800002021A600A6822F002020A601A6822F464
:1004900000421A60704700BF3C8004404080044026
:1004A000074B08491A6842F400421A600A6842F091
:1004B00002020A601A6842F002021A60704700BF26
:1004C0003C8004404080044008B5FFF7E9FF034A40
:1004D000136843F01043136008BD00BF80F0024072
:1004E000034A136823F010431360FFF7C5BF00BF32
:1004F00080F0024010B50D4C2368013943F40043ED
:100500000903013A236001F47F21C2F30B02084B77
:100510000A431A60074A1368002BFCDB000600F050
:100520004070044B40F08040186010BD3C80044097
:1005300004F1024000F10240F8B502463D4B3E494D
:100540003E483F4D3F4E404F09F04AFEFFF7A8FF9F
:100550003E4A4FF4C063136042F80C3C42F8103C32
:100560003B4B00244FF480621A6001212C60022270
:100570000320FFF7BFFF374B374A1C60012143F8C8
:100580005C1C4FF4803043F8582C344A43F8540C28
:1005900043F8502C324B3360C6F8CC403167776754
:1005A000B0673048304E0260304A1360304B4FF035
:1005B00080721A602F4A1A602F4A13681030186030
:1005C00040F20220D8800420986098824FF4007096
:1005D0001E619C80D882294ED88306209883DC60D7
:1005E0009E61137903F1804303F504338C201C7062
:1005F0001870234B40201870224B2B601079224B2F
:10060000224D00F1100443F8245043119B0003F1E4
:10061000604303F5614300F01F00814019601379C6
:1006200003F1604303F5644350211970184B1279AC
:100630001A70F8BD366E0100B02401004813FF1F88
:1006400080F0024014F002400300004718B004405C
:1006500014B0044060F00240030000071B1F0100BB
:10066000001F1F1F90F002400002FF1F94F0024085
:1006700000F0024001000090CC21FF1F00F8FFFFB6
:100680000CE400E001000002000AFF1FB5060000B4
:100690001B80004010B50023CA581212C250CA185D
:1006A000C418526808331212B3F5806F6260F3D138
:1006B00010BDFFFF08B50F4B0F4A19791170BFF33A
:1006C0004F8F1B680D4819690D4BA3F58062994245
:1006D00034BF19461146FFF7DDFF084801F006FA5E
:1006E00018B9084A136801331360074A13680133C5
:1006F000136008BDCC21FF1F1F800040CC1DFF1FD1
:100700000006FF1FC81DFF1FC41DFF1F10B5064CAC
:100710000021204609F08CFC2046044A0449BDE82B
:10072000104009F001BF00BFCC21FF1F300FFF1F99
:100730006D04000070B5044608460D460BF020FC21
:1007400023680246294620465B68BDE8704018478A
:1007500000230A2209F051BD38B50546FFF7EAFF2C
:100760000446284609F02CFD204438BD38B5431E08
:100770009BB2012B05460C460BD808F063FE064BD6
:10078000B0FBF4F11A6801FB1400904238BF032556
:100790001860284638BD00BFD821FF1F38B519485A
:1007A000194C1A4D1A492378002BFCD02B78DB0703
:1007B000F9D503680A689B1A0E2BF4D91549164817
:1007C000FFF7CAFF00F070FE144B102201461860BC
:1007D0000023114809F011FD0F4809F0F1FC01F068
:1007E000DDF901F0ACFD0E48FFF7A6FE0D49002033
:1007F00001F0A8FDFFF768FE0B490748FFF7ACFFC3
:1008000038BD00BFFCA60120DFA70120F8A601200B
:1008100050A80120B72401004813FF1F0C22FF1F1E
:10082000007701000040C40AEA2401002DE9F043EA
:100830004A4CB4F90030023385B002D101F0E4FA39
:10084000208000F057FD00280BDDB4F900300133A3
:1008500011D1424B00221A80FFF736FE01F070FDE5
:1008600009E008D0B4F90030002B04DB3B4B042234
:100870001A80FFF735FEB4F90000002805DD384B7B
:100880001968FFF773FF354B1880B4F90030354D08
:10089000002B17DB01F01EF9334B1A68904288BF1A
:1008A00018602B680193B4F90000019E01F0B0FAC2
:1008B0002B682E4A0093009B116820809B1B8B4263
:1008C00088BF13602B682A4A0293029B11685B1A47
:1008D000B3F57A7F91463ED9B4F90030224E234CCD
:1008E000DFF8A480234F002B2ADB23492348FFF79E
:1008F00021FF1A4B2148B3F9001009F0B9FC204937
:100900001E48FFF717FFD8F800101C48FFF720FF1C
:100910001C491A48FFF70EFF39681848FFF718FFFF
:1009200018491648FFF706FF31681448FFF710FF13
:1009300014491248FFF7FEFE21681048FFF708FF30
:100940000023C8F800303B60336023602B680393BA
:10095000039BC9F8003005B0BDE8F083E021FF1F1C
:10096000340FFF1FFCA60120E421FF1FD421FF1F2D
:10097000DC21FF1FC81DFF1FF72401004813FF1FC4
:10098000FF24010001250100C41DFF1F0020704746
:100990007047006910B10368DB6818477047006949
:1009A00010B103681B6918477047006910B10368EC
:1009B0005B6918474FF0FF307047006910B103685A
:1009C0009B691847704707B5006910B94FF0FF30B1
:1009D00009E0036801229B680DF107019847002890
:1009E000F4D09DF8070003B05DF804FB07B500697B
:1009F0008DF8071028B103680122DB680DF10701AB
:100A0000984703B05DF804FB13B50346006D0C4630
:100A100028B10DF1060201A905F0CBFC08E0586DE4
:100A200008B9002021E00DF1060201A903F047FBFF
:100A30000028F6D0BDF80430BDF806200BB9002A16
:100A4000EFD002F01F0149002170C2F34511D2120C
:100A5000A27003F01F022271C3F343125B12013A2A
:100A600003F5EA6361706271A37102B010BD13B542
:100A70000346006D0C4628B10DF1060201A905F0F0
:100A8000A8FC08E0586D08B9002021E00DF106022D
:100A900001A903F024FB0028F6D0BDF80430BDF80E
:100AA00006200BB9002AEFD002F01F014900217087
:100AB000C2F34511D212A27003F01F022271C3F3D8
:100AC00043125B12013A03F5EA6361706271A3712C
:100AD00002B010BD38B5856D0446BDB94FF48070C5
:100AE0000AF01CFC0146A06570B10570206D20B1B4
:100AF0004FF4807205F0D4F808E0606D30B14FF427
:100B0000807203F02DFA01E0014BA365A06D38BDA2
:100B1000E821FF1FD0B5046D6CB1012B08BF002A7E
:100B200014D21146204605F05CFA78B1204605F053
:100B300054FE58B1D0BD446D44B1204603F008FCCA
:100B400020B12046BDE8D04004F0FBBB0020D0BD62
:100B500010B5044600684368013B43603BB9036835
:100B6000DB6A9847206810B103685B6898470023E8
:100B7000236010BD054B10B503600369044613B133
:100B80001030FFF7E5FF204610BD00BF78250100BB
:100B900010B50446FFF7EEFF2046142109F00EFCC5
:100BA000204610BD036D13B1586900217047436D95
:100BB00013B193E8030070471846F6E7036D13B1CD
:100BC000D86900217047436D13B11869596970479E
:100BD0001846F6E7826B30B562B1137803F008036C
:100BE00003F0FF00FBB1D3695069181A1BD56FF0F1
:100BF000004018E0C06BB0B190F831301B0707D54A
:100C0000D0E90445D0E90023A01A65EB030101E017
:100C10000020002100236FF000428B4208BF824277
:100C200001D2104630BD30BD08B51030FFF7D2FFFD
:100C300008BD08B51830FFF7CDFF08BD836B1BB1A9
:100C40001B7813F0700F05E0C06B30B190F83130B5
:100C500013F0500F14BF01200020704708B5183062
:100C6000FFF7ECFF08BD10B504461830FFF7E6FFAC
:100C700060B1206D10B1002105F0B3F9606D28B1AD
:100C800000220023BDE8104003F062BB10BD836B5F
:100C900023B9C06B003018BF012070470120704796
:100CA00010B50446806D18B10AF040FB0023A3651F
:100CB00018342046FFF7EBFF20B12046BDE8104076
:100CC00006F01ABC10BDFFFF10B5064B03600446CA
:100CD000FFF7E6FF044BA36004F1180006F00CFCDC
:100CE000204610BDA42501003025010010B50446A2
:100CF000FFF7EAFF20465C2109F060FB204610BDAB
:100D000008B51830FFF7C3FF08BD0346806B08B174
:100D100005F036B9D86B08B103F004BB4FF0FF30D3
:100D2000704708B51030FFF7F0FF08BD08B5183060
:100D3000FFF7EBFF08BD0346806B08B105F064B810
:100D4000D86B08B103F02CBA4FF0FF30704707B5ED
:100D500001220DF107011030FFF7EDFF01280CBF54
:100D60009DF807004FF0FF3003B05DF804FB08B5B5
:100D70001830FFF7E0FF08BDD0B4846B44B1012BFD
:100D800008BF002A09D220461146D0BC05F029B977
:100D9000C06B10B1D0BC03F0DBBA0020D0BC7047F0
:100DA00038B50146049814461D4610B901F11800E3
:100DB0001DE001280AD10B6D01F118000BB15A6931
:100DC00012E04B6D7BB1D3E900230EE0022811D174
:100DD0000B6D01F118000BB1DA6905E04B6D13B131
:100DE000D3E9042301E00022002312196B41FFF72D
:100DF000C3FF38BD002038BD0346806B08B105F045
:100E00001BBAD86B08B104F0AFB8704708B5103002
:100E1000FFF7F2FF08BD08B51830FFF7EDFF08BD7A
:100E2000F0B5D0F838E09DF814409DF818509DF8C2
:100E30001C609DF82070BEF1000F08D0089707963F
:100E4000069505947046BDE8F04005F06FBCC06B98
:100E500038B10897079606950594BDE8F04004F070
:100E6000E7B9F0BD1FB58A79A2F150031B0611D472
:100E70000C784B7903944C7802948C78019409791E
:100E800000910133DBB202F26C7204211830FFF7DB
:100E9000C7FF00E0002004B010BD1FB58A79A2F1A1
:100EA00050031B0611D40C784B7903944C780294B0
:100EB0008C780194097900910133DBB202F26C72F3
:100EC00002211830FFF7ACFF00E0002004B010BD95
:100ED0000346806B08B105F0B5BCD86B08B104F0CF
:100EE0008FBA704708B51030FFF7F2FF08BD07B59D
:100EF00002AB012203F8011D10301946FFF7E8FF8D
:100F000003B05DF804FB08B51830FFF7E1FF08BD3A
:100F100010B50446006940B10368DB6A984704F1E4
:100F20001000BDE81040FFF713BE10BD38B5002516
:100F30000A4B456003600B790373094B83608B6830
:100F400003610B7B037504461031183006F0A3FAD9
:100F5000044BA360A565204638BD00BFA425010051
:100F60000C250100542501002DE9F04395B0002522
:100F70000DF150081B4B48F8503D2A4618310446E5
:100F80004FF47A7604A88DF8045002968DF80C5030
:100F90001295139506F003FB04A8FFF778FEDFF81F
:100FA0004C9080B15C2009F007FA07464146FFF7F4
:100FB000BDFF7B6825710133A6602573C4F80090DE
:100FC00027617B6005E02071A6602073C4F8009063
:100FD0002061054B009304A806F08EFA204615B058
:100FE000BDE8F0835425010030250100782501007B
:100FF00070B5012B94B0044605D0022B40F20223B9
:1010000018BF002301E044F202230431684606F0D1
:1010100053FB04A8FFF73BFE114E90B15C2009F092
:10102000CBF969460546FFF781FF0023237123733F
:101030006B6826604FF47A720133A26025616B60A1
:1010400006E04FF47A732071A3602073266020615C
:10105000044B009304A806F04FFA204614B070BD6C
:10106000782501003025010070B58EB01E4B01932C
:101070004FF47A7200238DF8083003928DF8103007
:101080000593054602230E46184A194906A8FFF79C
:10109000AFFF0A9B13B15A6801325A60059B13B126
:1010A00005A8FFF755FD0A9B059306A8FFF762FD0B
:1010B0000024B4420FDA35F814200E4906A80AF0CD
:1010C000FBFE06A80AF05CFF06A9024601A8FFF78E
:1010D00060FC0134EDE701A8FFF71AFF01A8FFF754
:1010E00049FD0EB070BD00BF78250100F825010054
:1010F000387C012004260100044801230380044BAE
:1011000010211B688380FFF7AFBF00BFEA21FF1FDC
:10111000340FFF1F10B5244C24492046FFF71CFB59
:1011200023492046FFF718FB22492046FFF714FB0E
:1011300021492046FFF710FB20492046FFF70CFB12
:101140001F492046FFF708FB1E492046FFF704FB16
:101150001D492046FFF700FB204609F031F81B49E6
:101160002046FFF7F9FA1A492046FFF7F5FA194920
:101170002046FFF7F1FA18492046FFF7EDFA20461E
:1011800009F01EF815492046FFF7E6FA14492046F3
:10119000FFF7E2FA20461349FFF7DEFA2046BDE8E2
:1011A000104009F00DB800BF4813FF1F0B260100C7
:1011B0001226010026260100412601005B260100BF
:1011C0008526010099260100AC260100C0260100F9
:1011D000DD260100EF260100012701002027010084
:1011E00041270100622701001FB5184C08F02AF9B9
:1011F00002A900F0A3F916492046FFF7ADFA154BF6
:1012000015491B682422204608F0EAFF9DF80E20AD
:101210009DF80C109DF80D30009102F2B2720F494A
:10122000204608F0DDFF9DF808109DF809309DF874
:101230000A20009120460A4908F0D2FF094B0A49CA
:101240001A68204608F0CCFF04B010BD4813FF1FF9
:10125000892701000C22FF1FAF270100C1270100D1
:10126000DA270100340FFF1FF327010010B50446F1
:101270008AB007F089FF0028FBD06A4628230D2199
:10128000074809F075F80AAB1844002300F8283C19
:101290002246044968460AF035FE0AB010BD00BF78
:1012A0004813FF1F8028010070B5044690B00D461A
:1012B000164607F069FF0028FBD006AA28230D2157
:1012C0000A4809F055F810AB1844002300F8283CF0
:1012D0000DF117030193029600950DF116032246B6
:1012E000034906A80AF00EFE10B070BD4813FF1F98
:1012F0000128010010B588B007F046FF002800F073
:10130000BD8007F0FFFEC0B23A283FD107F03CFF96
:101310000028FBD007F0F6FEC0B2732809D1594966
:101320005948FFF707FA59495748FFF703FA0120D0
:10133000A5E065280AD153495348FFF7FBF9544902
:101340005148FFF7F7F94FF0FF3098E0682802D1D5
:10135000FFF7E0FE92E0772802D1FFF7CDFE8DE0A7
:101360006C2802D100F022FD88E0622840F08680DF
:1013700044494548FFF7DEF946494348FFF7DAF9A3
:1013800007F0C8FF642008F0E5F877E03F2834D183
:1013900007F0FAFE0028FBD007F0B4FEC4B208F054
:1013A00051F806A900F0CAF8702C02D1FFF71CFF13
:1013B00064E0642C0AD19DF81E209DF81C10009159
:1013C0009DF81D30344902F2B27209E0742C0BD141
:1013D0009DF8181000919DF819309DF81A202F499A
:1013E000294808F0FDFE49E0612C47D12C4B2D49DE
:1013F0001A68254808F0F4FE40E021283ED107F0A5
:10140000C3FE0028FBD007F07DFEC0B2642815D1D2
:1014100005AA04A903A8FFF747FF08F013F806A9D7
:1014200000F08CF8039B0193049B00939DF8182017
:101430009DF819109DF81A00059B17E0742818D123
:1014400005AA04A903A8FFF72FFF07F0FBFF06A9D1
:1014500000F074F89DF81E209DF81C3002F2B27264
:1014600001929DF81D20009203A807C800F05CF9C6
:1014700004E0612802D10A48FFF7F8FE002008B016
:1014800010BD00BFA82D01004813FF1F0C2801004C
:101490001228010017280100CA270100E3270100D4
:1014A000340FFF1FFD27010072B6084B0849702258
:1014B0001A70084A116080221A701A781206FCD538
:1014C000054B186862B620F07F407047000002406C
:1014D00000000741040002400C0002400C4B1B6856
:1014E00010B49C68B4F90E40844204D0DB68B3F9B0
:1014F0000E30984201D1074B186820B103685DF89F
:10150000044B5B68184710465DF8044B704700BFFA
:101510002818FF1F380FFF1F08B507F093FF4FF47F
:101520006163B0FBF3F0044B1A6890421ABF186075
:101530000120002008BD00BF1022FF1F3C232DE921
:10154000F041B0FBF3F403FB14020A70B4FBF3F2B6
:1015500003FB124318244B704FF46163B0FBF3F3A9
:10156000B3FBF4F204FB12338B7007223C4BB0FB4D
:10157000F3F0031DB3FBF2F2C2EBC2029B1A01337C
:101580000024CB70224640F26D184FF0640E4FF4E9
:10159000C87CE6B206F2B27313F003070ED193FBD8
:1015A000FEF50EFB153565B993FBFCF50CFB153507
:1015B000002D14BF45464FF4B77504E040F26D1599
:1015C00001E04FF4B7752A44904204F10104E0D2DF
:1015D0008E7197B9642593FBF5F405FB14347CB93F
:1015E0004FF4C87593FBF5F405FB1434002C40F25E
:1015F0006D1408BF4FF4B77404E040F26D1401E0BD
:101600004FF4B774121B64264FF4C874DFF854E02B
:10161000801A93FBF6F206FB123693FBF4F204FBFE
:1016200012330022012AD5B206D147B94EB9002B98
:1016300014BF1C241D2405E012F80E4002E01C24F7
:1016400000E01D24844205D801320C2AA0EB0400DE
:10165000E8D11546013501304D710871BDE8F081C2
:101660008051010025280100F0B52C4B827940F211
:10167000B271534364254FF4C876A1F2B274A2420A
:1016800011DD8C070DD191FBF5F405FB141424B981
:1016900091FBF6F406FB14141CB903F5A83303F50B
:1016A000C0730131E9E702F2B27264244FF4C875E5
:1016B00046791B4FDFF86CE092FBF4F104FB112438
:1016C00092FBF5F105FB1125012102F003028E4288
:1016D00011DD022907D132B904B925B903F5181370
:1016E00003F56E5305E007EB010C1CF801CC0EFB73
:1016F0000C330131EBE742788178C2EB02124FF4F0
:101700006164920004FB012201780A4401790548D2
:10171000013900FB01201844F0BD00BF8033E10116
:10172000252801008051010013B5059C8DF80200A9
:10173000632C02A8CCBFA4F2B2741E348DF806400C
:1017400000F8082D049C8DF804308DF801108DF8F8
:101750000540FFF789FF07F07BFE02B010BD2DE9C1
:10176000F843089D0746164603EB01090C464C4515
:101770000ED03B683246DB6821463846984704F174
:10178000010830B12046099A3146A8474446EEE7A1
:101790000120BDE8F8832DE9F04105461F4602EB24
:1017A00001080C4644450DD02B6806991E6A204658
:1017B000B847214602462846B04701340028F1D1F7
:1017C000BDE8F0810120BDE8F0814FF0FF307047A7
:1017D000037A30B5002B39D01D4B4268D97A0029E5
:1017E00028D072B6D97AC90705D51A48D9680468CD
:1017F0002140D9610160D97A154C8D0705D516486D
:1018000021690568294021620160D97A104C480796
:1018100005D5124861690568294061620160D97A7D
:101820000B4C090705D50E48A16905682940A1623E
:10183000016062B61B68D968914207D009491960F6
:10184000DA6042F080421A61074A1A6030BD00BF78
:10185000F812FF1F80E100E084E100E088E100E091
:101860008CE100E001403F0000003F80054B1B6819
:101870004FF00042DA625963DA6A002AFCDA9B6BA5
:10188000704700BFF812FF1F704773B515460C462E
:10189000064607F0D7FD6946FFF750FE9DF8063073
:1018A0009DF805209DF804100A3B9BB27F2B09D8B8
:1018B0000C2A07D81F2905D841EA421141EA4323DF
:1018C0009BB200E0002333809DF802309DF80110A8
:1018D0009DF80020172B0AD83B2908D83B2A06D8A8
:1018E000490141EAC32343EA52039BB200E00023CB
:1018F00012F0010218BF642223802A7002B070BD6A
:1019000013460248024A01F095BA00BFF812FF1FC1
:10191000B081012038B50C461546FF21204607F05E
:10192000CFFB2B4622462146024801F083FA0020D5
:1019300038BD00BFF812FF1F84B004A800E90E00F4
:10194000014804B001F050B9F812FF1F10B5044669
:1019500000684368013B43603BB90368DB6A984712
:10196000206810B103685B6898470023236010BDAE
:10197000037AE3B10E4BDA7ACAB1D00742BF0D4AFF
:10198000D9691160DA7A910741BF094A116A0A4A96
:101990001160DA7A520741BF054A516A074A11605D
:1019A000DB7A1B0741BF024B9A6A054B1A607047EE
:1019B000F812FF1F00E100E004E100E008E100E0B0
:1019C0000CE100E0064B1B684FF00042DA62FF2298
:1019D0005A63DA6A002AFCDA986BC0B2704700BF1B
:1019E000F812FF1F08B5FEF7A5FE08BD38B505467D
:1019F000FEF7AEFE0446284608F0E2FB204438BD60
:101A0000D0F8803433B198794FF4007303FA00F0C2
:101A100080B27047D0F8840408B1D0F83C04704715
:101A2000D0F8803413B1D86901387047D0F88404F5
:101A300008B1D0F8300470470346D0F8800408B1EC
:101A400005F0E2B8D3F8840408B103F06FB870472A
:101A5000F0B5002A134E144F14BF4FF060544FF0EE
:101A60006454002236F8125097FBF5F5A94204D3CE
:101A7000190707D544F0806404E0551C172DF7D0F2
:101A80002A46EFE709495B0751F8222007D522F4DF
:101A90007043120902F4706244F000741A43224346
:101AA0000260F0BDA8290100006CDC026C2A010074
:101AB00010B50446FFF7CCFF204610BD13B5002338
:101AC0000446012201A8FFF7F3FF019B636002B007
:101AD00010BDFFFF044A13885088834238BF9633F5
:101AE000181A80B2704700BF5481012038B50B4DE1
:101AF0002C886B880134A4B2962C28BF0024A34202
:101B0000014609D068684FF4806200EB842007F03A
:101B100003FA2C80012038BD002038BD54810120FB
:101B200070B50F4E74883388B4FBF1F4B3FBF1F356
:101B30009C420D4612D08A02716802FB041107F024
:101B4000EBF9611C89B29623B3FBF5F3994228BFE8
:101B5000002115FB01F17180012070BD002070BDD6
:101B60005481012010B50121044607F0A3FC034B6A
:101B700053F83430012283F8802010BD882E0100F4
:101B8000054A012352F8302011B182F880307047A5
:101B900082F80031704700BF882E01002DE9F04720
:101BA00007218EB07148724DDFF8FC8101F058F8C2
:101BB0000C216E4801F0A2F80E216C4801F0E8F803
:101BC0006C4B6D4A6D481A60002108F051FB6B4860
:101BD00008F0F6FA0A20FFF7C5FF642007F0BAFC08
:101BE00000264FF00A0C4FF0000E654B07938DF85E
:101BF00014C08DF815E0CDF8188005AA07CA08AC06
:101C000084E807000A938DF820C08DF821E0CDF814
:101C1000248094E80700C5F8BC340BAB83E80700C8
:101C2000584C85F8B4C485F8B5E4C5F8B8840ECB33
:101C3000204605F0FDFE95F8AF94C5F89044B7B284
:101C4000B9F1000F04D0092F8CBF0024012407E054
:101C50002146A4F29C4005F0D1FC0028F3D04C466C
:101C6000013664B13946454808F002FB464943480D
:101C7000FFF7B8FE4FF47A7007F06CFCB1E7092F5C
:101C8000424E434D434F08D943493C48FEF764FD5B
:101C9000012334602C603B6065E04048FFF7C0FEE4
:101CA00082463E48FFF7ACFEAAFB00893B48FFF79F
:101CB000C3FEC0EB0A0A3948FFF7A2FEAAFB0023C5
:101CC000CDE90223364B37491B68009322460A238D
:101CD0004FF00A0A294808F083FA42464B4601941D
:101CE000CDF800A0254808F0CBFA27492348FFF794
:101CF00079FEDDE902230194CDF800A01F4808F029
:101D0000BFFA1E4808F05CFA2448FFF789FE014636
:101D10001A48FEF71DFD1C491848FFF763FE1F48CF
:101D2000FFF78AFE01461548FEF712FD16491348D3
:101D3000FFF758FE1948FFF763FE410A0F48396064
:101D4000FFF754FE10490D48FFF74CFE1348FFF70C
:101D500073FE0146306028600848FFF747FE0A49D5
:101D60000648FFF73FFE0EB0BDE8F087F812FF1FF0
:101D7000387C012090A601208B1800004813FF1F1B
:101D8000B0910120D8800120012501003022FF1FE1
:101D90002822FF1F5C8101205C2801003C7C01207F
:101DA000400FFF1F6B280100408AF70137B50F4C29
:101DB0000F4D20462946FFF715FE0E4B0E491B68B6
:101DC000009300220A23204608F00AFA0B48FFF786
:101DD00033FE0B4B0B491B680246204608F000FA05
:101DE00029462046FFF7FEFD03B030BD4813FF1F14
:101DF000A82D0100400FFF1F6B2801003C7C012033
:101E00003022FF1F7D2801004FF0FF307047FFFF99
:101E10002DE9F043041E95B0C0F2DC800421A848EF
:101E2000FFF77EFE00287AD0A64A136801331360BC
:101E300004BBA54BA54FDFF8F09201221A72984619
:101E40003D463C68A14E002C7DDCA14B53F824306C
:101E5000002B00F0C1809F484FF4996303FB0400FE
:101E60000430FFF7E9FD9C4B484543F8240040F25D
:101E7000B38068E0012C45D107F0E4FA06A9FFF72A
:101E80005DFB9DF8182004929DF8192003929DF89F
:101E90001A20924D9DF81E3002929DF81C2001924E
:101EA0009DF81D20009203F2B2738D4A8D49284699
:101EB0000AF002F8013004222A508B4A2B181268CB
:101EC0005A608A4A9A608A4A12681A610224002279
:101ED000DC605A61552385F8FC3185F8FD3185F8C1
:101EE000FE3185F8FF31834B186910B96FF001009E
:101EF00089E103684FF40072DB6829469847B0F522
:101F0000007FF3D37B4B18690028EFD003686C493E
:101F1000DB684FF480529847B0F5805FE6D3032C1E
:101F200006D17448FEF749FD7248FEF7F1FF4FE015
:101F3000042C4FD16F48FEF740FD6E48FEF7E8FFD6
:101F40004FF0FF305FE1002388F8083033685F4CC2
:101F5000002B1CDC5F4D684A68484FF4996707FB0B
:101F600003530433136008F02BF92168634808F029
:101F70007FF963496148FFF735FD206807FB005092
:101F80000430FFF759FD01465C48FEF7E1FB5D4A6E
:101F90003368116813608B4218BF5B495B4D1CBFEF
:101FA00000200860012B1DBF4A4A4FF4996101FBD4
:101FB000032300232B60002B98D0554C2768FFF794
:101FC000ABFA68B92368052B90DC002B40F3D38073
:101FD000002018E1204616E12B6801332B6030E722
:101FE00007F030FA06A9FFF7A9FA3F4A9DF81AE070
:101FF0009DF81C009DF81D109DF81E306FB903F26E
:10200000B27302900191CDF80CE00093136841493E
:10201000414A424809F050FF0DE003F2B2730290CA
:1020200001910497CDF80CE0009313683C493A4ABB
:102030003A4809F041FF3B493048FFF7D3FC3749A4
:102040002E48FFF7CFFC2B68D3F8841459B1002336
:10205000324A8DF8183006A88DF819308DF81A30EC
:1020600004F086F921E0D3F8880490B92B68D3F8FE
:102070008414E9B100238DF818308DF819308DF8EB
:102080001A30264A012301F5896106A804F02EFAC8
:1020900059E08DF849108DF84A108DF84B100B4619
:1020A0001E4A014606A802F0C0FB00284DD1DDE71C
:1020B000D3F88804D0BB23680133236045E000BF18
:1020C000C0910120BC910120B09101202C22FF1F62
:1020D0003022FF1F387C01202822FF1F347A012084
:1020E000E8280100ED2801000C22FF1F0077010005
:1020F000340FFF1F1422FF1F9CA601204813FF1F4F
:10210000002501003C0FFF1F1022FF1F347C01201F
:102110005081012085280100832801006081012071
:10212000A0280100A82D0100FF9FBB0D8DF84910CC
:102130008DF84A108DF84B10012300F58961334A60
:1021400006A802F0C3FF0028B5D02B68D3F884049A
:1021500018B12E4904F00AFE08E0D3F8880410B93B
:102160002368013305E0294902F084FD0028F7D0F7
:102170000023236026E707F065F906A9FFF7DEF9DB
:102180009DF8182001929DF819209DF81A300092B0
:102190001F49204A204809F08FFE20492048FFF7B8
:1021A00021FC31681E4808F063F81E491C48FFF7FF
:1021B00019FC19491A48FFF715FC2968164A0B68DB
:1021C00006A81C680223A0470A9B13B15A68013273
:1021D0005A60154C23691BB104F11000FFF7B6FBE0
:1021E0000A9B236106A8FEF7C5FC206920B90F49A8
:1021F0000B48FEF7B1FA79E603681B6B9847002895
:102200007FF43AAEF3E715B0BDE8F08360810120BA
:10221000C2280100C028010000810120A82D010072
:102220004813FF1F002501001422FF1FD6280100BC
:1022300038B5204B2048214D214A5A6000245C804B
:102240001C804FF47A732A460471836004731D4B1B
:102250001D490360046108F067F91C4B1C4A1A60B1
:102260001C4A5A6001221A721B4B1C4983F8AD2488
:102270002922196083F8AF241949C3F89414FF2266
:10228000184983F8C52483F89C4483F89D4483F857
:10229000B24483F8C044C3F8A014C3F88444C3F81C
:1022A000884483F8C4442A4620460F49BDE8384094
:1022B00008F03AB9548101201422FF1F300FFF1F8C
:1022C0003422FF1F78250100750B0000B09101201A
:1022D0003C28010001100138387C0120D02A01007F
:1022E000302E0100D02D0100891800000368C9B20A
:1022F0001B681847F8B51E4603680125490083F896
:10230000A31083F82E5183F82D5104461746110A65
:102310000068FFF7EBFF39462068FFF7E7FF310A57
:102320002068FFF7E3FF31462068FFF7DFFF29460B
:10233000206800F0DBFAB0FA80F04009F8BD704781
:102340007047FFFF2DE9F041894E054630680F4682
:102350001424012180F8A34080F82E1180F82D115B
:1023600000F0C4FA30B12146824806F033FF8248BB
:1023700007F026FF3068DFF8F8811423012480F885
:10238000A330002180F82E4180F82D41FFF7AEFFE9
:1023900006213068FFF7AAFF0021306800F0A6FA96
:1023A000D0B9234622460A21D8F8000000F01AFBD3
:1023B00090B1D8F8000003685B6998470602D8F826
:1023C000000003685B699847304380B225B1B028AC
:1023D00002D12046BDE8F08144F2600330220A2198
:1023E0006348FFF787FF10B90020BDE8F0816C2338
:1023F00026220A215E48FFF77DFF4FF4F973282259
:102400000A215B48FFF776FF40F622732C220A214F
:102410005748FFF76FFF44F246433C220A215448D5
:10242000FFF768FF40F2371324220A215048FFF7D4
:1024300061FF8DB3514B4E489D428CBF0123002359
:1024400034220A21FFF756FFB7FBF5F307EE907A27
:10245000B8EE677A07EE905AF8EE676A03F01F034A
:10246000C7EE267A0A21424807EE103AB8EEC77A3C
:1024700077EEC77A9FED427A67EE877AFCEEE77ACD
:1024800017EE902AC2F30A0242EAC3233222FFF770
:1024900031FF44F2FF5301E044F2FF0330220A21EE
:1024A0003348FFF727FF732302220A213048FFF742
:1024B00021FF4FF4C87007F04DF841F61D532E224E
:1024C0000A212B48FFF716FF3DB1072304220A21FA
:1024D0002748FFF70FFFB02306E004231A460A211E
:1024E0002348FFF707FF302306220A212048FFF781
:1024F00001FF0A22114610231D48FFF7FBFE0023AF
:102500000E220A211A48FFF7F5FE43F63C4310223B
:102510000A211748FFF7EEFE47F67F7322220A21B1
:102520001348FFF7E7FE362324220A211048FFF75D
:10253000E1FE40F273132A220A210D48FFF7DAFE6A
:1025400000283FF451AF882320220A210848FFF7D2
:10255000D1FE00283FF448AF322324220A21044848
:10256000FFF7C8FE003018BF0120BDE8F08100BFB2
:10257000C0A101200D2901004813FF1F406603017F
:1025800000000045024B0348186000F06FB800BF20
:10259000C0A101208010FF1F90F8A12090F8A0009A
:1025A000101A704790F8A03090F8A1209A4281BF8D
:1025B0005A1C1B1880F8A020187E98BF4FF0FF30DF
:1025C000704790F8A03090F8A1209A4286BF1B185F
:1025D000187E4FF0FF3070477047B0F82E312BB1A6
:1025E00090F82D31882B03D9012303710020704707
:1025F0005A1C034480F82D2183F8A3100120704752
:1026000038B50446B0F82E011546A0B194F82D3126
:10261000C3F18902954282BF01201546207104F161
:10262000A30018442A4606F077FC94F82D312B4479
:1026300084F82D31284638BD43691A685B681268F2
:102640001A420ED0074B9942036901D8272204E0B1
:10265000054A914294BF1A220D225A70036904223E
:102660009A7170477F1A06003F420F0070B5002331
:10267000456980F8A03080F8A13080F82C3180F8CE
:102680002D3180F82E3180F82F3129686A680E6864
:10269000C0F834313243C0F838310A6002699370AF
:1026A000466990F83111124A31440D7A4B7B02EBA6
:1026B000C5051B026D6803F4E06343F064032B60FF
:1026C00090F832313344997CDB7D02EBC1021B026E
:1026D0005268084903F4E06343F064031360FFF7B2
:1026E000ABFF036920225A71036980229A7070BD82
:1026F000882E0100A086010038B50269D578EDB2B8
:1027000015F0100F044605F0400303D103F0FF015C
:102710002BB92BE01021D170002BF7D138BD05F07B
:10272000040505F0FF02384BD5B100221A70D4F829
:10273000343184F82D2103B1984794F82D3123B911
:10274000012284F82D2184F8A3302369D0229A70C5
:10275000236994F8A3201A71012384F82C314EE0E8
:102760000121197084F8A12023692EE02269937950
:10277000DBB203F0600060280AD103F0DF0393713D
:10278000D4F8383123B184F8A01094F8A100984708
:1027900023699A7802F0100202F0FF01D2B115F01D
:1027A000010512D194F82C2194F82D11914281BF8A
:1027B000511C121984F82C1192F8A3208CBF1A71A5
:1027C0001D712369D0229A7019E0C0229A70236982
:1027D0001B7914E084F830119A7942F020029A7142
:1027E00023691A7994F8A130872BD2B207D8064909
:1027F000097821B1591C234484F8A1101A76236961
:102800000222DA7038BD00BFC4A101202DE9F347D0
:10281000344D354F2B680093DDF8008004460021CD
:10282000A0262269D3789B0658D52B680193019B7B
:10283000C8EB03030F2BF4D9002947D1626994F840
:10284000313113440521187A06F034FE626994F898
:1028500031311344012193F812A0504606F02AFEAC
:102860004FF009090021504606F004FE3346013BB3
:10287000FDD10121504606F0FDFD3346013BFDD15F
:10288000B9F10109EED1606994F831210244117A5D
:10289000537B07EBC1011B02496803F4E06343F07B
:1028A00064030B6094F8323103449A7CDB7D07EBC0
:1028B000C2021B02526803F4E06343F06403136036
:1028C0004FF4A073013BFDD10121AAE7102BA8D042
:1028D00000209070236980229A7000E0012002B0ED
:1028E000BDE8F087FCA60120882E01002DE9FF41FC
:1028F00003691222DA700269937803F02003044618
:102900000D4603F0FF0613B1B423937008E0FFF700
:102910007DFF002860D0236984F82F61B0229A706F
:102920002F4B21691A680092009ECA7802F020029B
:1029300002F0FF00002A45D00020022794F82D2144
:10294000C1B28A4235D96618226996F8A360167119
:102950001A680392DDF80C802669F278D2B202F090
:10296000020E0EF0FF0CBEF1000F0BD1920609D53E
:102970001A680292029AC8EB0202052AEDD986F87B
:1029800002C026E0F7702669F278D2B212F0100F7A
:1029900002D112F0200F03D18023B370042009E08C
:1029A000D20700F10100C9D500290CBF0220032085
:1029B00001E0002015B1236980229A70002384F879
:1029C0002E310AE01A680192019A921B042AACD9AE
:1029D0008870236980229A70042004B0BDE8F081D9
:1029E000FCA601202DE9F0439946002380F8A03091
:1029F00080F8A130036917461222DA7002699378D1
:102A000003F0200389B00546884603F0FF0413B1A4
:102A1000B423937009E0FFF7F9FE002800F0B980B5
:102A20002B6985F82F41B0229A705C4E2A69336871
:102A300000930099D37803F0200303F0FF0433B927
:102A400033680193019B5B1A042BF3D917E04FEA1B
:102A5000480848F001085FFA88F882F80480336873
:102A6000029302992A69D37803F0020303F0FF046A
:102A70004BB933680393039B5B1A052BF3D994700E
:102A80002B69802210E00223D3702B69D87810F0D4
:102A9000110403D080229A7000247AE037B9B9F18A
:102AA000000F14BF8022A0229A7072E0012F0CBF89
:102AB000A822A0229A702B691B7900200221A82449
:102AC000012F2A6933682BD00493DDF810C0D37826
:102AD00003F0020303F0FF0E4BB933680593059B27
:102AE000CCEB0303052BF2D982F802E04BE0D17066
:102AF0002A69D378DBB213F0100F49D19B0647D572
:102B0000013FFFB2012F08BF94702B6987289FBF38
:102B1000421C40191B7903768CBF1B79D0B2CFE7DA
:102B20000693069CD37803F0020303F0FF013BB940
:102B300033680793079B1B1B052BF3D9917022E089
:102B40000223D3702A69D378DBB2D9060AD51023C1
:102B5000D370A023013BFDD12A69937803F0F703DA
:102B6000937015E09B0613D5B023937087282B69CB
:102B70009FBF421C40191B7903768CBF1B79D0B2D2
:102B8000B9F1000F02D02B6980229A7085F8A1005C
:102B90000446204609B0BDE8F08300BFFCA6012032
:102BA0000148FFF7A9BD00BF8010FF1F0148FFF7D4
:102BB000A3BD00BFBC11FF1F0148FFF79DBD00BFB3
:102BC000440FFF1FC38B1B0441BFC38BC1F308011C
:102BD00003F47E43194358BFC1F30E01C183C38B75
:102BE0009BB2C3827047FFFF436819685A6810B5EB
:102BF0000C6822430A600268154911601549D160CA
:102C000001F18041116114491160417A134A5C1845
:102C10000C3194F82C4053F8211002EBC404646882
:102C20002160017A5C1803EB8101247EC96902EB03
:102C3000C40464682160817A581803EB810390F81A
:102C400040005B6C02EBC0025268136010BD00BF15
:102C500001401F000110003800001F80882E010075
:102C60004368234A9A4270B518D10B2904D1214CEC
:102C7000227822F0030210E0072906D11D4C2278A9
:102C800022F0030242F0010207E01C2906D1194C90
:102C9000227822F0030242F002022270427A1A44A1
:102CA00092F82C40A14221D003F12B05002215F807
:102CB000016F8E4217D119680D6859680D4210D006
:102CC0000D4901EBC4040025646825609C1894F844
:102CD0002C4001EBC40102F10C04496853F8243084
:102CE0000B60427270BD0132042AE0D170BD00BF9A
:102CF000D8290100F5A70120882E01004368214A48
:102D00009A4270B518D10C2904D11F4C227822F0B8
:102D10000C0210E0082906D11B4C227822F00C028C
:102D200042F0040207E0272906D1174C227822F04E
:102D30000C0242F008022270027A1A44147EA14268
:102D40001FD003F11705002215F8016F8E4215D12F
:102D500019680D6859680D420ED00C4901EBC40486
:102D60000025646825609C1803EB8203247EDB69E0
:102D700001EBC40149680B60027270BD0132042A84
:102D8000E2D170BDD8290100F5A70120882E0100ED
:102D90004368254A9A4230B518D10D2904D1234CF5
:102DA000227822F0300210E00E2906D11F4C227842
:102DB00022F0300242F0100207E01B2906D11B4C22
:102DC000227822F0300242F020022270827A1A44E5
:102DD00092F84040A14226D093F840208A4209D080
:102DE00093F841208A4207D093F842208A421AD1B0
:102DF000022202E0002200E0012219680D685968F1
:102E00000D420FD00A4901EBC40400256468256017
:102E10009C1803EB820394F840405B6C01EBC40107
:102E200049680B60827230BDD8290100F5A70120E6
:102E3000882E01002DE9F041002B00F0DC800468B1
:102E40006E4EE568266015F0807F03F001056DD1B8
:102E500095B141B14D1C0978012B18BF41F00041DB
:102E60006163294606E090F82C50012B18BF45F00D
:102E7000004565635E1E00E01E4690F82C4044EA63
:102E80000424002E3ED031B10D46497815F8024B8E
:102E900041EA04242946456807682D7A022E05F187
:102EA000FF354FEA05350CBF44F0805E44F0104E0C
:102EB000ADB2C7F834E0023ED0F800E0DEF82C7086
:102EC00017F0F00F14D013F0010FDEF838C005D062
:102ED00012B182F800C00132013B09E03AB19646D6
:102EE0004FEA2C280EF8028B82F801C07246023B92
:102EF00007F47047AF42DFD8C3E70168CC6A14F02B
:102F0000F00F02D1002BF8D175E08C6BD90704D5F6
:102F10000AB114700132013BF4E72AB111462512BF
:102F200001F8025B54700A46023BEBE795B141B1F0
:102F30004D1C0978012B18BF41F0004161632946FF
:102F400006E090F82C50012B18BF45F00045656352
:102F50005E1E00E01E4690F82C70002E37D021B186
:102F60004F780C78023144EA072744680568247AD0
:102F7000022E04F1FF344FEA04340CBF47F0805EA8
:102F800047F0104EA4B2C5F834E0023E0568D5F80B
:102F90002CE01EF0F00F10D013F0010FAD6B04D039
:102FA0000AB115700132013B07E02AB194460CF8D2
:102FB000025B2D1255706246023B0EF4704EA64520
:102FC000E4D8CAE70168CC6A14F0F00F02D1002BF4
:102FD000F8D110E0DC07896B04D50AB11170013219
:102FE000013BF4E72AB1144604F8021B09125170A0
:102FF0002246023BEBE7BDE8F08100BF00041F80E2
:1030000070B5836B1A79304B1A70436B1A792F4B5A
:103010001A70826B12791A70026B0446002A3FD034
:103020004368D9688A4203D9521A0263012110E029
:10303000436B511E1868FFF7C5FDA36B216B186821
:10304000FFF7C0FD216B002311F1FF3118BF0121F3
:103050002363636B1B68186804F12C02904222689A
:1030600005D1D36894F82C3043F000430EE0D068CB
:1030700010F0804F186815BF1D681D680088007823
:1030800014BF023501351D6040F000435363A36B4C
:103090001A790F4B1A70A9B1626B12791A7070BD50
:1030A00003680C491A63D962D96821F08041D9605C
:1030B000032380F82D30C06B036811461B68BDE800
:1030C0007040184770BD00BF1F8000401C8000404A
:1030D0001B80004000000FFF08B50248FFF790FF7B
:1030E00008BD00BFF812FF1F704700B50A46D0F8B0
:1030F00084148FB051B1002368468DF800308DF8EC
:1031000001308DF8023003F033F90DE0D0F8880477
:1031100050B18DF831108DF832108DF833100B4608
:103120000146684601F081FB0FB05DF804FB00B575
:103130000A46D0F884148FB071B1002368468DF828
:1031400000308DF801308DF8023003F011F9A8B18C
:10315000684603F049F811E0D0F8880470B18DF8A2
:1031600031108DF832108DF833100B460146684649
:1031700001F05BFB10B1684601F05CFE0FB05DF83A
:1031800004FB00B50A46D0F884148FB079B100234F
:103190008DF800308DF801308DF80230684601233B
:1031A00003F0E6F8A8B1684604F01CF911E0D0F885
:1031B000880470B18DF831108DF832108DF833100D
:1031C00001230146684601F030FB10B1684601F06A
:1031D000EEFD0FB05DF804FB10B5D0F884448EB05E
:1031E0000A466CB100238DF800308DF801308DF85F
:1031F000023004F589610123684603F077F910E095
:10320000D0F8881461B1012301F5896168468DF811
:1032100031408DF832408DF8334001F057FF00E027
:1032200008460EB010BD30B5D0F884348FB01546C6
:10323000ABB1002203F589648DF800208DF80120E0
:103240008DF80220134668460A46214603F03CF8F2
:10325000D8B12A462146684603F09DF915E0D0F81A
:10326000880490B100F589640A46684621468DF8C5
:1032700031308DF832308DF8333001F079FA20B1E9
:103280002A462146684601F080FF0FB030BD034654
:1032900010B5D3F88424043012B1D469013C04E0A1
:1032A000D3F888440CB1D4F83044FEF7A9FBA4FB52
:1032B000000110BD38B50346051DD0F8840420B1C7
:1032C000C469013C03F0A0FC08E0D3F8880420B1F5
:1032D000D0F8304401F02AFC00E00446241A2846C5
:1032E000FEF78EFBA4FB000138BD38B500F59265F2
:1032F0000446FF2380F8B03480F8BC14284605F05B
:10330000E9FAC4F88C54284604F0DAFE30B9D4F84F
:103310008C142046BDE8384004F070B9002038BD58
:1033200070B588B0064601A880E80E0007C805AD54
:1033300085E80B0006F29C4495E80E00204604F058
:1033400077FBC6F88C442CB196F8AB04B0FA80F049
:10335000400900E0204608B070BD30B590F8B034A8
:10336000FF2B85B0044604D190F8BC14FFF7BDFFD5
:1033700019E0D0F8B414D0F8B82490F8B1548DF80E
:1033800004308DF805500291039204AB13E90E004E
:10339000FFF7C6FF38B1D4F88C14204605B0BDE85D
:1033A000304004F02BB905B030BD2DE9F041D0F824
:1033B00090448CB006461F460CB9002024E02368D8
:1033C00020469B699847B0F5405F8046F5D94FF499
:1033D000007007F0A3FF05460028EED0B8F1806F1B
:1033E00002463B46214601A802D900F067FB01E0F6
:1033F00002F028FB0446284607F098FF002CDCD09A
:10340000301DFFF7AAFF01200CB0BDE8F08130B5F8
:10341000D0F8904485B00546F4B190F8C434BBB1FF
:1034200090F8C534FE2B05D0236869469B6B204677
:10343000984712E023682046DB69984723682046B6
:103440005B6C9847431CEFD0003018BF012004E0AC
:103450000430FFF782FF00E0204685F8C40405B081
:1034600030BDFFFF1248134AC0F89424124A134B90
:10347000C0F8A0240122036080F8AD240023292293
:10348000C0F88434C0F8883480F89C3480F89D34C7
:1034900080F8AF2480F8B23480F8C03480F8C434A7
:1034A000074A0849FF2380F8C53407F03DB800BF3C
:1034B000C8A10120302E0100D02D0100D02A01002A
:1034C000300FFF1FE93000007F28A2EB010204D873
:1034D000002A3FD00870481C7047B0F5006F0DD22D
:1034E000012A39D983090A4600F03F0063F03F03FF
:1034F00060F07F0002F8023B48702BE0B0F5803F9F
:1035000011D2022A28D9030B63F01F030B70C0F3FA
:10351000851363F07F0300F03F004B7060F07F0382
:103520008B70C81C7047032A16D9830C63F00F03F5
:103530000B70C0F3053363F07F034B70C0F385134A
:1035400063F07F038B7000F03F0363F07F03CB7069
:10355000081D70471046704700207047884230B5FC
:1035600036D203781C0602D41360441C33E003F007
:10357000E004C02C03D103F01F0302240EE003F08B
:10358000F004E02C03D103F00F03032406E003F062
:10359000F804F02C1CD103F0070304240444A142D6
:1035A00016D3013010F8011B01F0C005802D0FD19A
:1035B00001F03F01A04241EA8313F3D10749A3F18F
:1035C0008000884204D8A3F55841B1F5006F01D2BC
:1035D000002400E01360204630BD00BF7FFF1000D4
:1035E0002DE9F74F0CAE054614469A4696E8C00101
:1035F000019109B90020C3E0BAF1000FFAD00368C5
:103600000021DB6898470028F4D0019B03F1FF39C3
:1036100094F8C231EE2B5FFA89F93FD12B6822462C
:10362000DB680121284698470028E3D00822564944
:10363000204608F0A5F90028DCD1236D9945D9D89A
:103640004FEAA901023109F0030907B13960B8F165
:10365000000F01D088F800902B682246DB682846CE
:1036600098470028C6D04FEAC91000F12003E2585D
:1036700000F12803E35801339B1A0AB9012BB9D092
:10368000CAF8002006B1336010224049204408F0F7
:1036900077F900280CBF0320042071E0B9F1030F73
:1036A0001FD804EB091393F8BE21520619D193F8E1
:1036B000C231B3B10F2B14D009F11C0304EB031476
:1036C000D4F80630CAF8003016B1D4F80A303360A6
:1036D0000FB100233B60B8F1000F19D088F80090BB
:1036E00016E02146002391F8BE014006DAB281D1EE
:1036F00091F8C20100283FF47DAF9145FFF47AAF05
:103700000F2807D00133042B01F11001EBD171E731
:10371000012035E004EB03130132D3F8C6915FFAC0
:1037200082FB2B682246DB684946284698470028DA
:103730003FF460AF019B5B450FD094F8D221D4F8E1
:10374000D631052A7FF456AF0BF101025FFA82FBF6
:10375000002B3FF44FAF9944E3E7D4F8C6314B4414
:10376000CAF8003016B1D4F8CA3133600FB1C7F8C7
:103770000090B8F1000F02D0002388F8003002203A
:1037800003B0BDE8F08F00BF082B0100F82A01004C
:10379000B1F5807F30B506D810294FF0200414D938
:1037A000202914D900E03F24802912D9B1F5FC7FEB
:1037B00011D9B1F57C7F10D9B1F5FC6F0FD9B1F5F6
:1037C0007C6F94BF8023FF230AE0022308E00423D8
:1037D00006E0082304E0102302E0202300E0402359
:1037E00013FB04F3B2FBF3F5B5F5806F0BD2B2FB1C
:1037F000F4F103FB152304FB11220132B3FBF4F3B4
:10380000D2B2DBB203E03F22FE2340F2FF35037069
:10381000AB0823F03F031A434270857030BDF8B502
:103820000378DA0704461DD54068E168036804F1AF
:1038300010061B6A32469847054608B9002512E073
:1038400023789B0704D4237823F0010323700AE034
:10385000201D83C8036832461B6A394498470028F4
:10386000F1D1EBE701252846F8BD436870B5044661
:103870000E4615460BB9002070BDC3688B4213D0AD
:10388000FFF7CDFF0028F6D06B0703D50023237088
:10389000E66009E06068036804F11002DB68314605
:1038A00098470028F2D1E6E72378204605F0030583
:1038B0001D4300F8105B70BD7E2830B506D8A0F11E
:1038C0006103192B8CBF0023202320E0214D3524D8
:1038D0000023E21A012A1F4908D903EB520235F8E6
:1038E000221081428CBF14461346F2E79AB231F897
:1038F0002230984215D301EB8202C31AD1788B4251
:103900000FDA92F90220012A03D103F00103C01A51
:1039100005E00AB192B201E04EF2A032104480B24A
:1039200030BD0D4D4B240023E21A012A0A4908D963
:1039300003EB520235F8221081428CBF1446134625
:10394000F2E79BB231F82320824204BF01EB8303EC
:10395000588830BD3E2C0100122B010013B50446DF
:10396000808910B10023A3811AE06368A1688B42AB
:1039700016D201AA1846FFF7F1FD78B160600198F0
:10398000B0F5803F21BFC0F30903800AA3F51053AF
:10399000A0F5215028BFA38180B201E04FF6FF704F
:1039A00002B010BD8368C3F30803014663B1002071
:1039B0000A69D0540133B3F5007FF9D1C8680A69A8
:1039C000036809681B6A184701207047826803462C
:1039D000C2F30802006910B48154586801EB700109
:1039E000596099680131996040F2FF118A420AD109
:1039F000D86819680268146A4A1C1A601A69234652
:103A00005DF8044B184701205DF8044B704738B54A
:103A10000C46C9B20546FFF7D9FF28B1210A28464E
:103A2000BDE83840FFF7D2BF38BDF8B5002480E8C4
:103A3000120007468460A0B2FFF73EFFA042064690
:103A40000AD001463846FFF7E2FFA0B3651CB5F582
:103A5000803F0BD22C46EEE7651CB5F5803F0AD2BD
:103A6000A8B2FFF729FF854205D122E03846BDE81C
:103A7000F840FFF797BF2C1BB4F5007F0CD34FF62F
:103A8000FF713846FFF7C3FFA8B1A1B23846FFF770
:103A9000BEFF0028DBD10EE03446A54201D8254602
:103AA000D5E7A1B23846FFF7B2FF01340028F4D1C0
:103AB00001E00135D1E70020F8BDFFFF2DE9F04F0F
:103AC0001F46034687B0D9601A610B6801909B6955
:103AD00008460D4614469847B0F5801F814607D228
:103AE000002F00F0128192493846FCF723FE08E1CE
:103AF000002601230136F6B2202E4FEA430305D0FB
:103B00009945F7D81C2E01D8082303E0A6F10B082D
:103B1000C8F347031A2E88BF0136029383BF76107D
:103B20000123B3404FF400530093009B029A5E00C0
:103B30009B00C3EB090A0493029B2AFA03F303FADE
:103B400002FA00214FF400722046039305F0B8FA00
:103B5000072384F8C231FE2384F8C3314FF0010BF0
:103B6000FF234FF0000884F8C43184F8C53184F88D
:103B7000BFB184F8C0B184F8C1814AF65523A4F8D6
:103B8000FE312B68C4F8C661B244C4F8CAA11B6AEE
:103B90002246414628469847002800F0B1804FF45D
:103BA00000724146204605F08BFAEB232370762302
:103BB00063709023A3704523E37058232371462339
:103BC00063714123A3715423E37120232372637231
:103BD000A372009B23656365039BE365042323664F
:103BE0004FF48073A4F86830092384F86C309DF892
:103BF000083084F86D30802384F86F302664C4F870
:103C00004480C4F848A0C4F84C80A665C4F8649009
:103C1000A4F86A8084F86EB084F8708004F17703A9
:103C200004F2FD12F42103F8011F9342FBD14AF67E
:103C300055234FF00009A4F8FE31C846A9F16A03E4
:103C4000012B06D9B9F1700F1CBF14F8093003EB32
:103C5000780809F10109B9F5007FEFD12B682246F8
:103C60001B6A314628469847002849D02B682246CF
:103C70001B6A06F10C0128469847002840D04A46A6
:103C80000021204605F01CFA4AF65523A4F8FE311F
:103C9000631E06F1010A06F10909059304F2FF1BF0
:103CA000059B13F8012F9B4502EB7808F9D12B688F
:103CB00022461B6A51462846984708B32B6822467D
:103CC0001B6A0AF10C0128469847C8B10AF1010A9B
:103CD000CA45E5D14FF400720021204605F0F0F905
:103CE00006F10B0A059B13F8012F9B4502EB7808A0
:103CF000F9D12B6822461B6A49462846984738B9AD
:103D00001FB10C493846FCF715FD4FF0000AF1E0F1
:103D10002B6822461B6A09F10C01284698470028A7
:103D2000EED009F10103534506D09946DAE700BF0A
:103D3000122D01006B2D0100231F04F5FE7243F8C4
:103D4000048F9A42FBD12B6822461B6A51462846B3
:103D500098470028D4D02B6822461B6A09F10D0130
:103D6000284698470028CBD01FB164493846FCF755
:103D7000E1FC009B1E44039B4FF400724FEA830951
:103D80000021204605F09CF909F20729F823237049
:103D90004FEA592A234604F11302FF2103F8011FB9
:103DA0009A42FBD14FEA99394FF00008B8FBF9F37A
:103DB00009FB138323B91FB151493846FCF7BAFCFC
:103DC0002B6822461B6A06EB080128469847002804
:103DD00096D0B8F1000F05D14FF40072414620464D
:103DE00005F06EF908F10108C245DFD11FB1454960
:103DF0003846FCF79FFC029B4FF0010808FA03F8D5
:103E0000039B03F1070A4FEADA0A0AF2FF1B4FEAA3
:103E10005B2BD845FFF474AF4FF4007200212046AD
:103E200005F04EF9072323704FF000092B68049921
:103E30001B6A224649442846984700283FF460AF51
:103E4000B9F1000F01D184F8009009F10109CB45C7
:103E5000ECD11FB12C493846FCF76CFC009B019853
:103E6000334403EB08094946FFF7DFFD00283FF420
:103E700047AF019B9B68B3EB482F3FF641AF1FB1A3
:103E800022493846FCF756FC4FF4007200212046C8
:103E900005F016F9812284F8202002226263822232
:103EA000032384F84020019A237052686365019BC4
:103EB00062649B68C4F838A00026C144A365E66527
:103EC0002B6822461B6A06EB090128469847824662
:103ED00000283FF415AF2EB94FF40072314620464A
:103EE00005F0EEF80136B045EAD11FB10849384671
:103EF000FCF720FC504607B0BDE8F08F282D0100EC
:103F0000352D0100A72D0100372D01004E2D010098
:103F10005D2D01002DE9F04115460E4601F11E0808
:103F2000AB8936F8024F43B96A68AB689A4204D14C
:103F3000B4FA84F04009BDE8F0812846FFF70EFD91
:103F4000FFF7BAFC07462046FFF7B6FC874204D1CC
:103F50004645E5D10120BDE8F0810020BDE8F081B3
:103F60002DE9F84F90F8313082468946002B47D032
:103F700002F1FF380D460227002488449AF83030B9
:103F8000BB4237D300223946504600F072F8B8B32E
:103F90000378C12B34D1064600F11E0B234636F8B8
:103FA000024F73B104F5105292B2B2F5806F27D26E
:103FB00016489B021840C4F30904044304F58030FA
:103FC0000CE004F520539BB2B3F5006F02D38CB123
:103FD000204603E0B3F5806F07D311E0424629463F
:103FE000FFF772FA30B105460024B345D6D1013748
:103FF000FFB2C3E700232B70C9EB0500BDE8F88FC3
:10400000002089F80000BDE8F88F00BF00FC0F0019
:1040100070B50B684B6000240D468C810C614FF627
:10402000FF76AB891BB96A68AB689A4219D02846FB
:10403000FFF794FCB04212D0FFF73EFCE30343EAE3
:10404000540454FA80F4C4F34E0343EAC433041214
:1040500014FA83F42B690133A4B22B61E1E7002049
:1040600070BD2869AC820138FE288CBF0020012079
:1040700070BDF0B500F1240305460F46164693E8DF
:10408000070085B001AC84E807007A012146286A60
:1040900000F0DEFC012805D132462146286A00F0F6
:1040A00088FC00E0002005B0F0BD10B5044600F02B
:1040B0005BFF002384F8313084F8333010BD38B50D
:1040C0000D46144600F124010022006A00F071FC44
:1040D00020B143892B8003892380012038BD38B566
:1040E0000D46144600F124010022006A00F061FC34
:1040F00020B1C3892B8083892380012038BD38B546
:104100000D4690F83110044651B9382204F0D8FF1A
:104110004023012084F8313084F83300256238BD13
:10412000002038BDF0B40C78202C01F1010501D13C
:104130002946F8E7194F116091600D460E4615F8B3
:10414000014BDCB12F2C13D01F2C24D9A4F1220158
:10415000C9B21D2903D827FA01F1C9071BD404F0FD
:10416000BF013C2917D05C2C0DD114E02F2C05D1B8
:104170000E4611F8014B202CF8D1F9E71E601146CC
:10418000F0BCFFF745BF2E2C01D12946D5E7202CE6
:10419000FBD09560F9E70020F0BC704701010031C9
:1041A0002DE9F84F90F83330DF0704460E461546E8
:1041B00077D5580603D494F8313019070CD5D4E9D3
:1041C0000001D4E9042310EB050841F100094B4537
:1041D00008BF424500D2151AA94604F1180AB9F1E0
:1041E000000F43D0206AD4E90023D0F8381401EA44
:1041F0000208C8F3080BB8F1000F1ED1134307D112
:1042000094F831305A064CBFD0F83434E36905E0F5
:1042100094F833305B0603D5A3690133A3610CE046
:104220005246A16900F0E0FB00283ADB05D194F882
:10423000313013F0500F19D133E0276AA16997F894
:1042400045E4D7F82C04023901FA0EF14FEA58225E
:10425000014401EB0208BBF1000F4FD1B9F5007F1B
:104260004CD3D7F81C12884504D147E0C9EB0500B0
:10427000BDE8F88FB9F5806F2AD3012303FA0EF356
:104280004FEA592B9A1A934528BF9346884512D86E
:104290000BEB080399420ED207F50470FFF7BFFA43
:1042A00048B994F8323043F0020384F832304FF0CA
:1042B000FF30BDE8F88FD7F81402036832461F6953
:1042C00041465B46B8470028EBD04FEA4B270AE04F
:1042D000D7F8140203683246DB6841469847002845
:1042E000DFD04FF40077D4E90023D21943F1000363
:1042F0003E44C4E90023C7EB090970E700224146A8
:1043000007F50470FFF7B1FA0028CAD0CBF50077A3
:104310004F4528BF4F4600EB0B013A46304604F0AC
:10432000FBFDE0E7F7B501220DF107010446D0E9F6
:1043300000678569FFF734FF012808BF9DF8070073
:10434000A56118BF4FF0FF30C4E9006703B0F0BDAE
:104350002DE9F74F90F831B01F4683690193044669
:104360001646BBF1000F53D0D0E90089B94508BF0C
:10437000904551D056EA070302D10023836144E0FF
:104380001BF0080F05D0D0E90401B94208BF9042E4
:104390003ED3236A009393F845A40AF1090A16F163
:1043A000FF305FFA8AFA524647F1FF3106F0C2F851
:1043B00094F833205306054603D5E3691D44A561EF
:1043C00023E018F1FF3049F1FF31524606F0B2F810
:1043D000854202D358EA09030AD11BF0400F16BFE9
:1043E000009BE369D3F83434A36104F118080AE0B0
:1043F0002D1AFAE74246A169206A00F0F5FA002872
:1044000005F1FF3504DD002DF4D1C4E9006703E0B8
:10441000019BA361002000E0012003B0BDE8F08F04
:104420002DE9F04F9A4690F831308DB004460E4693
:10443000154673BB91F8313013F0500F29D00AF0B4
:104440000303012B00F08281022B40F07A810323C9
:104450000AF0080949EA03090DB32B694FF00F0868
:104460000E330022B3FBF8F8304608F102080023AF
:104470005FFA88F8FFF76CFF4FF0000B5F462022D1
:1044800004A93046FFF78CFE002800F0BC802028ED
:1044900008D0002084F8310084F8330062E14FF046
:1044A0000308E9E79DF81020110611D427B93368F5
:1044B000203B0193B369009347453CBF0137FFB2EE
:1044C00012B14FF0000BDAE7002D40F09C80E0E7DE
:1044D000BBF1000F27D1474538BF0027852ACED131
:1044E00038225946204604F0EBFD9DF814209DF833
:1044F000113084F8303002F03703D20658BF43F051
:10450000080384F83130336A2362B3696362336825
:10451000203BA36296F83330C3F3801384F82C3029
:104520004FF0010BABE7C02A2BD19DF8113084F876
:104530003390980744BF49F0400384F83330DDE9F5
:104540000623C4E90423099BE361DDE90A23C4E9E6
:1045500002231DB91AF4006F9BD126E02B686B6013
:104560004FF00003AB812A699DF813309A42A8D11D
:10457000BDF81420AB8AD11AD1F1000B4BEB010B23
:104580007DE7C12A9DD12A4604A92046FFF7C2FC37
:1045900008B9834673E7AA89002A7FF470AF696877
:1045A000AA6891427FF46BAFD4E71AF4884F03D125
:1045B00094F833309A0705D594F8313013F0110F81
:1045C0007FF467AF1AF4806F10D094F833309B07F4
:1045D0007FF55FAF002200232046FFF7B9FE0028D9
:1045E0003FF457AF204600F0ACFE08E01AF4804FCD
:1045F00000F0AE80D4E904232046FFF7A9FE00288E
:104600003FF447AFA4E01AF4007F3FF442AF19F043
:10461000020F3FF43EAF002D3FF43BAF47451CD2A5
:10462000202204A93046FFF7BBFD50B93046D6F82A
:1046300018A000F0B8FC00283FF42BAFC6F818A073
:10464000ECE720287FF425AF27B93368203B01939E
:10465000B36900930137FFB2E0E73822002120461A
:1046600096F8337004F02CFD336A2362082384F833
:104670003130009B6362C7F38017019B84F82C7074
:10468000A3622B686B60002708F1FF3AAF815FFAE5
:104690008AFA5FFA87FBC3454FD20122594620466A
:1046A000FFF7E7FC064600283FF4F3AE90F9002040
:1046B000002AFFF6EEAE2022002104F001FDBBF13E
:1046C000000F1ED185233370284B84F830A086F864
:1046D00001A01B687BB10DF10B020DF10E0103A8C7
:1046E0009847BDF80C307381BDF80E3033819DF8CA
:1046F0000B3033751FE045F221437381F3817382E0
:1047000019E0BBF1010F0CD169F07F03C0223270B8
:1047100086F801B084F833302B69F370AB8AB3802C
:1047200009E0C123337006F11E0BAA8992B96968AA
:10473000AA6891420ED10137ABE7204600F014FC85
:1047400010E0002B7FF4A5AE012381E602237FE673
:10475000012007E02846FFF701F926F8020F5E4521
:10476000E3D1E8E70DB0BDE8F08F00BF90A60120CF
:10477000F0B597B01F4600238DF851308DF85230B8
:104780008DF85330ADF8143090F831300192054671
:104790000C460BB1002046E091F8313013F0500F79
:1047A000F8D013782F2B12D1019B1A782F2A02D11F
:1047B00001330193F8E7216A1AB92846FFF79FFCF5
:1047C00031E008A8FFF79BFC0028E3D008AC01AB60
:1047D00002AA01992846FFF7A5FC0028DAD0019B20
:1047E0001B78D3B1002302AA21462846FFF718FE02
:1047F0000028CFD008AA2B4605F1300E14461868C1
:104800005968164603C6083373453246F7D118680F
:1048100030602846FFF749FCD9E73B4602AA21460B
:104820002846FFF7FDFD17B0F0BD19B101F589610C
:10483000FFF79EBF0846704730B4134690F831200A
:1048400072B991F8315015F0500F09D0D1E90045F7
:10485000002504F01F042C4302D130BCFFF7E0BD5B
:10486000002030BC70472DE9F84F804692468946BB
:1048700009B18C1E01E0D0F82044D8F830349C42B5
:1048800028BF002404F00707012303FA07F7C4F345
:10489000C80BFFB226462546D8F82C14002201EB9F
:1048A00015314046FEF7E1FF70B33B465946475C81
:1048B0001F4205F101050DD1AA1B52450BD1B9F1DB
:1048C000000F04D1BAF1010F08BFC8F82064B01C72
:1048D000BDE8F88F2E46AC4215D0D8F8302495426A
:1048E00004D25B0013F0FF03E2D103E000264FF493
:1048F0000071354601310123B1F5007F4FF0000B07
:104900001F46D4D3C8E70120BDE8F88F2DE9F8434E
:10491000174606468A1ED0F83004D11981429846BF
:1049200041D8D6F82034B8F1000F09D09A420BD8FC
:10493000994209D9814228BF0021C6F8201403E01A
:104940009A4238BFC6F8202402F007050123D6F8A2
:104950002C1403FA05F5EDB201EB1231C2F3C804D1
:104960000122304601F10109FEF77FFFD8B103199A
:104970002A4600F500701978114214BF0124002462
:10498000444510D05140013F19700FD0520012F031
:10499000FF02F0D10133144698424FF0010249461C
:1049A0001546E8D1DCE70020BDE8F8830120BDE82A
:1049B000F88338B50D46D0F838146B6819402B6869
:1049C0009C1E90F8453404FA03F303EB5123D0F80E
:1049D0002C1400F504701944FEF747FF18B16B68FA
:1049E000C3F30803184438BD38B5D0F83034013368
:1049F0008B420C46154602D24FF0FF3038BDD0F83E
:104A00002414002201EBD41100F50470FEF72DFFF1
:104A10000028F1D0A400C4F3080400592860013034
:104A200018BF012038BD73B502AD064645F8041D18
:104A300000242A4601993046FFF7D6FF002804DB00
:104A400004F10104F5D1204600E0002002B070BD61
:104A500070B50D46D0F8384449680C40A3180A4494
:104A60006A6090F845440934E4B2064623FA04F437
:104A700074B12B7A23B12B6801332B60013CF7E72B
:104A80002A4629683046FFF7AFFF0128F6D070BDEF
:104A9000012070BD012938B50C46154601D800200B
:104AA00038BDD0F8303401339942F8D8D0F8241406
:104AB000012201EBD41100F50470FEF7D6FE0028A8
:104AC000EDD0A400C4F308040551012038BD2DE940
:104AD000F34107460C460E4601AA21463846FFF729
:104AE00083FFB0F1000801DA00251BE00022214617
:104AF0003846FFF7CFFF05460028F5D0621CB8F115
:104B0000000F02D0019B9A4208D00023921B31462D
:104B10003846FFF7FBFE0028E6D0019E019CB8F165
:104B2000000FD9D1284602B0BDE8F0812DE9F0414F
:104B3000D0F82C1400240646254600F50477002200
:104B4000384601F10108FEF790FEF8B100F1FF3E92
:104B500005F5805C1EF8011FFF2901D1083409E02A
:104B600041B108220123194218BF01345B00013A08
:104B7000DBB2F8D1D6F830040835854202D3001BE9
:104B8000BDE8F08165454146E4D1D8E7BDE8F08154
:104B9000F0B5044687B0002508464FF0FF331146B4
:104BA000E360C4F81C3284F84454C4F840046060E4
:104BB0002570C4F8140284F81052029501950095EE
:104BC00005AB04F50872FEF70BFD10F0FB0F04F5C2
:104BD000047701D100203CE0059E2A463146384644
:104BE000FEF743FE05460028F4D01B49052203309A
:104BF00007F034FA01460028ECD195F86C30092B07
:104C0000E8D12B6D3344C4F824346B6DC4F82834D8
:104C1000AB6D1E44C4F82C64EB6DC4F830342B6EBD
:104C2000C4F8343495F86D3084F8453401250933DF
:104C300005FA03F3C4F83C34013BC4F83834C4F833
:104C400020042A462046FFF70EFE402384F8443411
:104C5000284607B0F0BD00BF7B2D010010B504460B
:104C6000D0F83414FFF7DFFE94F845340933DBB293
:104C7000984010BD70B500F589648EB000230A46D7
:104C8000684621468DF831308DF832308DF833305A
:104C9000FFF76EFD0546A0B19DF8313013F05003CB
:104CA0000ED06A4623460CAE144603CCB4421860BC
:104CB0005960224603F10803F6D12068186000E02D
:104CC0001D4628460EB070BD10B504780023CA03F7
:104CD00042EA5101C25C012B12FA81F189B204D17E
:104CE000852C14BF0122032200E0012213441F2B54
:104CF000EDD9084610BD10B50446FEF790FD58B139
:104D000004F50470FEF78BFD30B1D4F8400403685D
:104D1000BDE81040DB691847002010BDF8B5044617
:104D2000006AA16901B101310122FFF79CFD012850
:104D3000054601D8002638E0012301461A46206ABC
:104D4000FFF7E4FD06460028F4D0A26994F833305A
:104D500022B943F0400384F8333025E0590613D5D7
:104D60000132954220D023F04003E16984F83330CA
:104D7000A369994208D24F1C3A46206AFFF78AFE7F
:104D80000028D7D03946F3E74FF0FF322946206A92
:104D9000FFF780FE0028CDD0A16929B12A46206AFC
:104DA000FFF778FE0028C5D0A5613046F8BD70B584
:104DB00090F833309A07044601D4002070BDC569CD
:104DC0000DB9002528E05B0614D5066AD0E902017A
:104DD00096F8452410F1FF3002F10902D2B241F1F8
:104DE000FF3105F0A7FB0023421C29463046FFF7A0
:104DF0008DFD03E02946006AFFF769FE0028E0D137
:104E0000DBE701222046FFF734F901350028D4D032
:104E1000037803F07F03037094F83030E9B28B42DB
:104E2000EFD2002384F8313084F83330206AFFF762
:104E300062FF70BD10B590F83130D90688B00446D5
:104E400001D400201DE000220023FFF781FA202278
:104E500069462046FFF7A4F938B12028F1D19DF822
:104E600000301A06EDD4002BF1D1082384F831303C
:104E700094F8333043F0020384F833302046FFF7D0
:104E800096FF08B010BDFFFF2DE9F3410026DFF8C3
:104E9000D4800546374695F83030F1B28B424AD37C
:104EA00000222846FFF7E5F8044600284FD0037893
:104EB000C02B1DD0C12B37D0852B48D195F8313070
:104EC00003F037038380D8F8003033B30DF10302C9
:104ED0000DF1060101A898479DF80330BDF80620A2
:104EE0006375BDF80430A281E3812282638214E0FD
:104EF00095F8333013F0400F437814BF43F00203AA
:104F000023F002034370D5E90423C0E90223EB69CF
:104F10004361D5E90223C0E906232A6A92F81032D8
:104F200043F0010382F8103239462046FFF7CCFEE9
:104F300001360746AFE7012205F12401286AFFF791
:104F400038FD20B14780286AFFF7D5FE30B995F8C3
:104F5000323043F0010385F83230002002B0BDE862
:104F6000F08100BF90A6012010B590F831300446C2
:104F70000BB9012010BD90F833301A0607D503F0A5
:104F80007F0380F83330BDE81040FFF77DBF006A33
:104F9000FFF7B1FE0028ECD194F8323043F0010362
:104FA00084F8323010BD2DE9F04190F831300446DC
:104FB000580603D5206AFFF751FE00E0A068236A77
:104FC000D3F83C341844B0F1806F58D22046FFF734
:104FD000A5FE002853D0256A95F81032D90705D5CB
:104FE00005F50470FEF71BFC002848D04FF0FF3396
:104FF0000026C5F81C3285F8106205F508754FF4D7
:1050000000723146284604F05BF8226AA36992F8E0
:105010004514D2F82C74023B8B401F444FF001081A
:10502000236A93F8452408FA02F2B24209D9D3F868
:10503000400403682A461B6AB9199847F8B101363B
:10504000EEE794F83120520614D494F8332062F03D
:105050007F02D4E9020184F83320D3F83C240023F2
:1050600080185941C4E90201D4E9040112184B41E6
:10507000C4E904232046BDE8F041FFF775BF0020D6
:10508000BDE8F08110B591F8313013F0500F0446AF
:105090001AD040F60223FFF7C3F9A8B1102384F811
:1050A00031302046FFF77FFF70B1A369E3612046EE
:1050B00000230022FFF74CF9C12384F83330204647
:1050C000BDE81040FFF750BF002010BDF0B597B00D
:1050D0001F460023ADF814308DF851308DF8523052
:1050E0008DF8533090F83130019205460C46002B74
:1050F00048D191F8313013F0500F43D013782F2B53
:105100000DD1019B1A782F2A02D101330193F8E7C0
:10511000216A08A8FEF7F3FF002833D008AC01ABE2
:1051200002AA01992846FEF7FDFF58B3019B1B78A0
:1051300013B3002302AA21462846FFF771F990B164
:1051400008AA2B4605F1300E144618685968164611
:1051500003C6083373453246F7D1186830602846D5
:10516000FEF7A3FFDBE76FB102AA21462846FFF74F
:1051700089FF0028E4D105E002AA21462846FFF76E
:1051800081FF00E0002017B0F0BDF0B59DB0002316
:105190008DF831308DF832308DF833308DF869303C
:1051A0008DF86A308DF86B3090F8313013F0180FAD
:1051B000044601D1002039E0006A0B6A9842F9D117
:1051C00040F601236846FFF7D3FA0028F2D00EAA72
:1051D000234604F13007164618685968154603C57A
:1051E0000833BB422A46F7D11868286009AA07CAC3
:1051F00004F1240383E807009DF8303084F8303050
:1052000094F8333063F07F0384F833302046FFF79F
:10521000ABFE0028CED00023159302238DF86B300F
:10522000304608238DF86930FFF7C1FD1DB0F0BD91
:105230002DE9F84F1C4690F831309DF828B09DF8C4
:105240002CA09DF830509DF834901B0706468846E8
:1052500038D5A2F2BC7297B27F2F33D8631E0B2BC6
:1052600030D80BF1FF331E2B2CD8BAF1170F29D8E9
:105270003B2D27D8B9F13B0F24D8FFF775FE08B3B3
:105280004FEA69034BEA441443EA451544EA4724CC
:1052900045EACA2519F0010F4FF00007A4B2ADB2DC
:1052A0000CBF4FF000094FF06409BB4608F0010A3B
:1052B00096F83030F9B28B4234D300223046FEF7F4
:1052C000D8FE10B90020BDE8F88F0378852B04D0F4
:1052D000F8D3C03B012B1FD9F4E796F83130326A7E
:1052E00003F03703838092F8103243F0010382F811
:1052F0001032BAF1000F01D00582448218F0020F7B
:105300001EBF80F814900581448118F0040F1EBF61
:1053100080F815908581C4815946FFF7D5FC013787
:105320008346C5E7012206F12401306AFFF741FBFD
:105330000028C7D0A0F802B0306AFFF7DCFCBDE857
:10534000F88F73B590F833309A07044601D40020E3
:1053500054E0C569002D40D003F0400303F0FF0185
:105360008669F3B1236AD0E9020193F8452410F16C
:10537000FF3002F10902D2B241F1FF3105F0DAF853
:10538000421C2EB1013D731CAD1B01932A4401E068
:105390000195E6611AB300230199206AFFF7B6FA76
:1053A00019E08EB102AA006A42F8041D3146FFF7E7
:1053B0001BFB0028CBDB09D04FF0FF32A169206A2C
:1053C000FFF768FB10B9C2E70195C661019931B1D9
:1053D000206AFFF77CFB10B9B9E701200EE0D4E9A1
:1053E0000023C4E90223C4E9042394F8333063F0B2
:1053F0007F0384F833302046FFF7B6FD02B070BD5E
:105400002DE9F74F90F833308946990704469246C4
:1054100040F1BB801A0706D404F11803D04600936C
:105420004FF0010B62E0D0E90423FEF791FF002862
:10543000F2D1AAE0206A2668D0F838341E40C6F3BC
:105440000805002E56D0D4F820E0A1699EF8452426
:10545000DEF82C3402399140760A19443144002D8B
:105460007CD1B8F5007F80F09A80D4E90423D4E998
:1054700000679F4208BF964234BF012205220EF505
:105480000470FEF7F2F900287FD0C5F50076464596
:1054900028BF4646284432464946354403F03CFD81
:1054A000B5F5007F06D1206A00F50470FEF7B7F964
:1054B00000286AD0D4E90001821941F100031046A6
:1054C0001946C4E90023D4E904238B4208BF824271
:1054D000B144C6EB080809D294F8333063F07F0377
:1054E00084F8333002460B46C4E90423B8F1000FB8
:1054F000A0D135E0A76937B394F833305B061AD5ED
:1055000090F84524E3690193D4E90201093210F1CE
:10551000FF3041F1FF31D2B205F00CF8019B184485
:10552000874205D32046FFF7F9FB00288BD12CE0FA
:105530000137A76187E7009A3946FFF755FA002837
:1055400023DB80D1EEE7E36933B92046FFF7E6FBC2
:10555000D8B1A369E36176E7A36174E701228EE71E
:10556000D4E90001D4E902238B4208BF824202D26F
:10557000C4E9020102E0254B1B6873B194F8333093
:1055800063F07F0384F8333007E094F8323043F05F
:10559000010384F83230002035E0504633E0B8F59E
:1055A000806FDEF81C72DEF8140214D30BFA02F3DB
:1055B0009E1B4FEA582CB445634628BF3346B94278
:1055C0004FEA432602D8CA18974215D30268556A93
:1055D0004A46A8476CE7B94202BF8EF810524FF016
:1055E000FF33CEF81C3203684A461B6A98470028EE
:1055F000CBD04FF400765DE74FF0FF328EF81052BB
:10560000CEF81C22E2E703B0BDE8F08F90A601209F
:10561000486810B50C4658B10B894A8901339BB2D2
:105620009A420B8104D80349FBF784F800232381B5
:10563000206810BD352D0100F0B5044687B00E4638
:10564000154600214FF40072406A03F039FD206ACC
:1056500010B12049FBF76EF8636A0393236A049341
:10566000E069E1680023ADF814306B0903AAADF8D6
:105670001630036800929F6A174B6A1E0131B847C3
:1056800008B9002023E0206A10B11449FBF752F852
:10569000636AF822102E1A704FF0FF000CBF04222C
:1056A0000C220123616AC85401339A42FAD1E0699D
:1056B000626A0368E1681B6A98470028E1D0E069E4
:1056C000E568A1680368626A1B6A2944984707B0C5
:1056D000F0BD00BF282D010011560000A72D0100CC
:1056E00038B5446A4FF4007200210546204603F0A5
:1056F000E7FCEB232370762363702346902203F8A4
:10570000022F202104F10A0203F8011F9342FBD16A
:105710004FF40073A4F80B3095F82B3063732B8D86
:10572000E38102232374F82363752B69E361AB697A
:1057300023624AF65523A4F8FE3138BD70B50446FD
:105740004FF400720021406A03F0BAFC656A2269D6
:10575000216805F2BF10FEF71BF8A36922692168D2
:105760001A4405F2C310013AFEF712F894F82A30F1
:1057700085F8C2312369C5F8C631A369E069C5F867
:10578000CA314AF65523A5F8FE310368626A1B6ADE
:105790000021BDE870401847F8B54FF48073456AA2
:1057A000D0F814E090F82B20436004466368C3EB04
:1057B0000E01B1FBF2F101F20116360A700000F1A0
:1057C000A107BB420AD3DB1BA66003F1800626615A
:1057D000A1F6F576B6F5704F03D209E08033636029
:1057E000E4E7206A002853D02A49FAF7A3FF4FE0E4
:1057F0008133E36000F1210301FB0233B3F5803F05
:10580000A3614FF0010634BF04230623268584F8E4
:105810002A302046FFF792FF002839D02046FFF7B4
:105820005FFF4FF40073A5F81130A368EB8280236B
:1058300085F82430292385F82630174BC5F8273002
:1058400005F1350205F12A03202103F8011F9342D7
:10585000FBD1462385F83630412385F83730542371
:1058600085F83830312385F83930362385F83A30D9
:10587000E069626A036821691B6A984740B16268FF
:10588000E3682046D21A1021BDE8F840FFF7D4BEE5
:105890000020F8BD812D010087D61200F8B54FF425
:1058A000005303614FF480434360456A436990F8B5
:1058B0002B1004466268981AB0FBF1F000F18106E3
:1058C000F6094FEA460E0EF500570937BA4203D2E1
:1058D00002F500526260EDE74FF6F4739842A6605D
:1058E00007D8206A002800F0A0805149FAF722FF6B
:1058F0009BE0A2F50053CEEB03039BB200FB012219
:10590000238503F50053E360A2F50053A361494BDF
:105910009A4294BF0B230C2384F82A302046FFF7C9
:105920000DFF002800F081802046FFF7D9FEA36814
:105930006B620223EB6201232B8606236B86802396
:1059400085F84030292385F842303B4BC5F8433079
:1059500005F1510205F14603202103F8011F93428E
:10596000FBD1462385F85230412385F85330542328
:1059700085F85430332385F85530322385F8563076
:10598000E069626A036821691B6A984700284CD065
:10599000E06921690368626A1B6A0631984700283A
:1059A00043D04FF400720021606A03F089FB234B5F
:1059B000E069C5F8FC3121690368626A1B6A02313B
:1059C0009847002831D0E06921690368626A1B6A40
:1059D0000831984748B31A4B2B6003F1FF5303F586
:1059E00000532033C5F8E431E069626A4FF0FF33B9
:1059F000C5F8E831C5F8EC312169036801311B6A4B
:105A0000984790B1E06921690368626A1B6A0731AF
:105A1000984750B1A26894F82B30204603EB42021D
:105A20002021BDE8F840FFF707BE0020F8BD00BF09
:105A3000812D01000004FB0087D61200000055AA4A
:105A40005252614138B503620B68C161426204463B
:105A50009B690846984700F2FF73DB0A062B6061DA
:105A6000236006D8206A10B11B49FAF763FE0020B4
:105A700038BD102B01D8022315E0202B01D80423B8
:105A800011E0402B01D808230DE0802B01D8102312
:105A900009E0B3F5806F01D8202304E0B3F5004F8F
:105AA00094BF40238023B0F5800F84F82B3020462C
:105AB00002D2FFF771FE01E0FFF7F0FE0546206A13
:105AC00025B138B10549FAF735FE03E00028CED0FC
:105AD0000349CAE7012038BD952D0100AA2D010018
